{
  "_format": "hh-sol-artifact-1",
  "contractName": "MockUSDC",
  "sourceName": "src/MockUSDC.sol",
  "abi": [
    {
      "inputs": [],
      "stateMutability": "nonpayable",
      "type": "constructor"
    },
    {
      "inputs": [
        {
          "internalType": "address",
          "name": "spender",
          "type": "address"
        },
        {
          "internalType": "uint256",
          "name": "allowance",
          "type": "uint256"
        },
        {
          "internalType": "uint256",
          "name": "needed",
          "type": "uint256"
        }
      ],
      "name": "ERC20InsufficientAllowance",
      "type": "error"
    },
    {
      "inputs": [
        {
          "internalType": "address",
          "name": "sender",
          "type": "address"
        },
        {
          "internalType": "uint256",
          "name": "balance",
          "type": "uint256"
        },
        {
          "internalType": "uint256",
          "name": "needed",
          "type": "uint256"
        }
      ],
      "name": "ERC20InsufficientBalance",
      "type": "error"
    },
    {
      "inputs": [
        {
          "internalType": "address",
          "name": "approver",
          "type": "address"
        }
      ],
      "name": "ERC20InvalidApprover",
      "type": "error"
    },
    {
      "inputs": [
        {
          "internalType": "address",
          "name": "receiver",
          "type": "address"
        }
      ],
      "name": "ERC20InvalidReceiver",
      "type": "error"
    },
    {
      "inputs": [
        {
          "internalType": "address",
          "name": "sender",
          "type": "address"
        }
      ],
      "name": "ERC20InvalidSender",
      "type": "error"
    },
    {
      "inputs": [
        {
          "internalType": "address",
          "name": "spender",
          "type": "address"
        }
      ],
      "name": "ERC20InvalidSpender",
      "type": "error"
    },
    {
      "inputs": [
        {
          "internalType": "address",
          "name": "owner",
          "type": "address"
        }
      ],
      "name": "OwnableInvalidOwner",
      "type": "error"
    },
    {
      "inputs": [
        {
          "internalType": "address",
          "name": "account",
          "type": "address"
        }
      ],
      "name": "OwnableUnauthorizedAccount",
      "type": "error"
    },
    {
      "anonymous": false,
      "inputs": [
        {
          "indexed": true,
          "internalType": "address",
          "name": "owner",
          "type": "address"
        },
        {
          "indexed": true,
          "internalType": "address",
          "name": "spender",
          "type": "address"
        },
        {
          "indexed": false,
          "internalType": "uint256",
          "name": "value",
          "type": "uint256"
        }
      ],
      "name": "Approval",
      "type": "event"
    },
    {
      "anonymous": false,
      "inputs": [
        {
          "indexed": true,
          "internalType": "address",
          "name": "previousOwner",
          "type": "address"
        },
        {
          "indexed": true,
          "internalType": "address",
          "name": "newOwner",
          "type": "address"
        }
      ],
      "name": "OwnershipTransferred",
      "type": "event"
    },
    {
      "anonymous": false,
      "inputs": [
        {
          "indexed": true,
          "internalType": "address",
          "name": "from",
          "type": "address"
        },
        {
          "indexed": true,
          "internalType": "address",
          "name": "to",
          "type": "address"
        },
        {
          "indexed": false,
          "internalType": "uint256",
          "name": "value",
          "type": "uint256"
        }
      ],
      "name": "Transfer",
      "type": "event"
    },
    {
      "inputs": [
        {
          "internalType": "address",
          "name": "owner",
          "type": "address"
        },
        {
          "internalType": "address",
          "name": "spender",
          "type": "address"
        }
      ],
      "name": "allowance",
      "outputs": [
        {
          "internalType": "uint256",
          "name": "",
          "type": "uint256"
        }
      ],
      "stateMutability": "view",
      "type": "function"
    },
    {
      "inputs": [
        {
          "internalType": "address",
          "name": "spender",
          "type": "address"
        },
        {
          "internalType": "uint256",
          "name": "value",
          "type": "uint256"
        }
      ],
      "name": "approve",
      "outputs": [
        {
          "internalType": "bool",
          "name": "",
          "type": "bool"
        }
      ],
      "stateMutability": "nonpayable",
      "type": "function"
    },
    {
      "inputs": [
        {
          "internalType": "address",
          "name": "account",
          "type": "address"
        }
      ],
      "name": "balanceOf",
      "outputs": [
        {
          "internalType": "uint256",
          "name": "",
          "type": "uint256"
        }
      ],
      "stateMutability": "view",
      "type": "function"
    },
    {
      "inputs": [],
      "name": "decimals",
      "outputs": [
        {
          "internalType": "uint8",
          "name": "",
          "type": "uint8"
        }
      ],
      "stateMutability": "view",
      "type": "function"
    },
    {
      "inputs": [],
      "name": "faucet",
      "outputs": [],
      "stateMutability": "nonpayable",
      "type": "function"
    },
    {
      "inputs": [
        {
          "internalType": "address",
          "name": "to",
          "type": "address"
        },
        {
          "internalType": "uint256",
          "name": "amount",
          "type": "uint256"
        }
      ],
      "name": "mint",
      "outputs": [],
      "stateMutability": "nonpayable",
      "type": "function"
    },
    {
      "inputs": [],
      "name": "name",
      "outputs": [
        {
          "internalType": "string",
          "name": "",
          "type": "string"
        }
      ],
      "stateMutability": "view",
      "type": "function"
    },
    {
      "inputs": [],
      "name": "owner",
      "outputs": [
        {
          "internalType": "address",
          "name": "",
          "type": "address"
        }
      ],
      "stateMutability": "view",
      "type": "function"
    },
    {
      "inputs": [],
      "name": "renounceOwnership",
      "outputs": [],
      "stateMutability": "nonpayable",
      "type": "function"
    },
    {
      "inputs": [],
      "name": "symbol",
      "outputs": [
        {
          "internalType": "string",
          "name": "",
          "type": "string"
        }
      ],
      "stateMutability": "view",
      "type": "function"
    },
    {
      "inputs": [],
      "name": "totalSupply",
      "outputs": [
        {
          "internalType": "uint256",
          "name": "",
          "type": "uint256"
        }
      ],
      "stateMutability": "view",
      "type": "function"
    },
    {
      "inputs": [
        {
          "internalType": "address",
          "name": "to",
          "type": "address"
        },
        {
          "internalType": "uint256",
          "name": "value",
          "type": "uint256"
        }
      ],
      "name": "transfer",
      "outputs": [
        {
          "internalType": "bool",
          "name": "",
          "type": "bool"
        }
      ],
      "stateMutability": "nonpayable",
      "type": "function"
    },
    {
      "inputs": [
        {
          "internalType": "address",
          "name": "from",
          "type": "address"
        },
        {
          "internalType": "address",
          "name": "to",
          "type": "address"
        },
        {
          "internalType": "uint256",
          "name": "value",
          "type": "uint256"
        }
      ],
      "name": "transferFrom",
      "outputs": [
        {
          "internalType": "bool",
          "name": "",
          "type": "bool"
        }
      ],
      "stateMutability": "nonpayable",
      "type": "function"
    },
    {
      "inputs": [
        {
          "internalType": "address",
          "name": "newOwner",
          "type": "address"
        }
      ],
      "name": "transferOwnership",
      "outputs": [],
      "stateMutability": "nonpayable",
      "type": "function"
    }
  ],
  "bytecode": "0x608060405234801561001057600080fd5b50336040518060400160405280600d81526020016c26b7b1b5902aa9a21021b7b4b760991b815250604051806040016040528060048152602001635553444360e01b815250816003908161006491906101b5565b50600461007182826101b5565b5050506001600160a01b0381166100a257604051631e4fbdf760e01b81526000600482015260240160405180910390fd5b6100ab816100c4565b506005805460ff60a01b1916600360a11b179055610274565b600580546001600160a01b038381166001600160a01b0319831681179093556040519116919082907f8be0079c531659141344cd1fd0a4f28419497f9722a3daafe3b4186f6b6457e090600090a35050565b634e487b7160e01b600052604160045260246000fd5b600181811c9082168061014057607f821691505b60208210810361016057634e487b7160e01b600052602260045260246000fd5b50919050565b601f8211156101b057600081815260208120601f850160051c8101602086101561018d5750805b601f850160051c820191505b818110156101ac57828155600101610199565b5050505b505050565b81516001600160401b038111156101ce576101ce610116565b6101e2816101dc845461012c565b84610166565b602080601f83116001811461021757600084156101ff5750858301515b600019600386901b1c1916600185901b1785556101ac565b600085815260208120601f198616915b8281101561024657888601518255948401946001909101908401610227565b50858210156102645787850151600019600388901b60f8161c191681555b5050505050600190811b01905550565b6108fe80620002846000396000f3fe608060405234801561001057600080fd5b50600436106100ea5760003560e01c8063715018a61161008c578063a9059cbb11610066578063a9059cbb146101dd578063dd62ed3e146101f0578063de5f72fd14610229578063f2fde38b1461023157600080fd5b8063715018a6146101b25780638da5cb5b146101ba57806395d89b41146101d557600080fd5b806323b872dd116100c857806323b872dd14610142578063313ce5671461015557806340c10f191461017457806370a082311461018957600080fd5b806306fdde03146100ef578063095ea7b31461010d57806318160ddd14610130575b600080fd5b6100f7610244565b6040516101049190610748565b60405180910390f35b61012061011b3660046107b2565b6102d6565b6040519015158152602001610104565b6002545b604051908152602001610104565b6101206101503660046107dc565b6102f0565b600554600160a01b900460ff1660405160ff9091168152602001610104565b6101876101823660046107b2565b610314565b005b610134610197366004610818565b6001600160a01b031660009081526020819052604090205490565b610187610322565b6005546040516001600160a01b039091168152602001610104565b6100f7610336565b6101206101eb3660046107b2565b610345565b6101346101fe36600461083a565b6001600160a01b03918216600090815260016020908152604080832093909416825291909152205490565b610187610353565b61018761023f366004610818565b610361565b6060600380546102539061086d565b80601f016020809104026020016040519081016040528092919081815260200182805461027f9061086d565b80156102cc5780601f106102a1576101008083540402835291602001916102cc565b820191906000526020600020905b8154815290600101906020018083116102af57829003601f168201915b5050505050905090565b6000336102e48185856103a4565b60019150505b92915050565b6000336102fe8582856103b6565b610309858585610435565b506001949350505050565b61031e8282610494565b5050565b61032a6104ca565b61033460006104f7565b565b6060600480546102539061086d565b6000336102e4818585610435565b610334336305f5e100610494565b6103696104ca565b6001600160a01b03811661039857604051631e4fbdf760e01b8152600060048201526024015b60405180910390fd5b6103a1816104f7565b50565b6103b18383836001610549565b505050565b6001600160a01b0383811660009081526001602090815260408083209386168352929052205460001981101561042f578181101561042057604051637dc7a0d960e11b81526001600160a01b0384166004820152602481018290526044810183905260640161038f565b61042f84848484036000610549565b50505050565b6001600160a01b03831661045f57604051634b637e8f60e11b81526000600482015260240161038f565b6001600160a01b0382166104895760405163ec442f0560e01b81526000600482015260240161038f565b6103b183838361061e565b6001600160a01b0382166104be5760405163ec442f0560e01b81526000600482015260240161038f565b61031e6000838361061e565b6005546001600160a01b031633146103345760405163118cdaa760e01b815233600482015260240161038f565b600580546001600160a01b038381166001600160a01b0319831681179093556040519116919082907f8be0079c531659141344cd1fd0a4f28419497f9722a3daafe3b4186f6b6457e090600090a35050565b6001600160a01b0384166105735760405163e602df0560e01b81526000600482015260240161038f565b6001600160a01b03831661059d57604051634a1406b160e11b81526000600482015260240161038f565b6001600160a01b038085166000908152600160209081526040808320938716835292905220829055801561042f57826001600160a01b0316846001600160a01b03167f8c5be1e5ebec7d5bd14f71427d1e84f3dd0314c0f7b2291e5b200ac8c7c3b9258460405161061091815260200190565b60405180910390a350505050565b6001600160a01b03831661064957806002600082825461063e91906108a7565b909155506106bb9050565b6001600160a01b0383166000908152602081905260409020548181101561069c5760405163391434e360e21b81526001600160a01b0385166004820152602481018290526044810183905260640161038f565b6001600160a01b03841660009081526020819052604090209082900390555b6001600160a01b0382166106d7576002805482900390556106f6565b6001600160a01b03821660009081526020819052604090208054820190555b816001600160a01b0316836001600160a01b03167fddf252ad1be2c89b69c2b068fc378daa952ba7f163c4a11628f55a4df523b3ef8360405161073b91815260200190565b60405180910390a3505050565b600060208083528351808285015260005b8181101561077557858101830151858201604001528201610759565b506000604082860101526040601f19601f8301168501019250505092915050565b80356001600160a01b03811681146107ad57600080fd5b919050565b600080604083850312156107c557600080fd5b6107ce83610796565b946020939093013593505050565b6000806000606084860312156107f157600080fd5b6107fa84610796565b925061080860208501610796565b9150604084013590509250925092565b60006020828403121561082a57600080fd5b61083382610796565b9392505050565b6000806040838503121561084d57600080fd5b61085683610796565b915061086460208401610796565b90509250929050565b600181811c9082168061088157607f821691505b6020821081036108a157634e487b7160e01b600052602260045260246000fd5b50919050565b808201808211156102ea57634e487b7160e01b600052601160045260246000fdfea26469706673582212204ab711057cc19c57414ffeae5f1a35473f3f0f91840d560078cc97be6354140964736f6c63430008140033",
  "linkReferences": {},
  "deployedLinkReferences": {}
}