{
  "_format": "hh-sol-artifact-1",
  "contractName": "AgentRegistry",
  "sourceName": "src/AgentRegistry.sol",
  "abi": [
    {
      "inputs": [],
      "stateMutability": "nonpayable",
      "type": "constructor"
    },
    {
      "inputs": [
        {
          "internalType": "address",
          "name": "sender",
          "type": "address"
        },
        {
          "internalType": "uint256",
          "name": "tokenId",
          "type": "uint256"
        },
        {
          "internalType": "address",
          "name": "owner",
          "type": "address"
        }
      ],
      "name": "ERC721IncorrectOwner",
      "type": "error"
    },
    {
      "inputs": [
        {
          "internalType": "address",
          "name": "operator",
          "type": "address"
        },
        {
          "internalType": "uint256",
          "name": "tokenId",
          "type": "uint256"
        }
      ],
      "name": "ERC721InsufficientApproval",
      "type": "error"
    },
    {
      "inputs": [
        {
          "internalType": "address",
          "name": "approver",
          "type": "address"
        }
      ],
      "name": "ERC721InvalidApprover",
      "type": "error"
    },
    {
      "inputs": [
        {
          "internalType": "address",
          "name": "operator",
          "type": "address"
        }
      ],
      "name": "ERC721InvalidOperator",
      "type": "error"
    },
    {
      "inputs": [
        {
          "internalType": "address",
          "name": "owner",
          "type": "address"
        }
      ],
      "name": "ERC721InvalidOwner",
      "type": "error"
    },
    {
      "inputs": [
        {
          "internalType": "address",
          "name": "receiver",
          "type": "address"
        }
      ],
      "name": "ERC721InvalidReceiver",
      "type": "error"
    },
    {
      "inputs": [
        {
          "internalType": "address",
          "name": "sender",
          "type": "address"
        }
      ],
      "name": "ERC721InvalidSender",
      "type": "error"
    },
    {
      "inputs": [
        {
          "internalType": "uint256",
          "name": "tokenId",
          "type": "uint256"
        }
      ],
      "name": "ERC721NonexistentToken",
      "type": "error"
    },
    {
      "inputs": [
        {
          "internalType": "address",
          "name": "owner",
          "type": "address"
        }
      ],
      "name": "OwnableInvalidOwner",
      "type": "error"
    },
    {
      "inputs": [
        {
          "internalType": "address",
          "name": "account",
          "type": "address"
        }
      ],
      "name": "OwnableUnauthorizedAccount",
      "type": "error"
    },
    {
      "anonymous": false,
      "inputs": [
        {
          "indexed": true,
          "internalType": "uint256",
          "name": "agentId",
          "type": "uint256"
        },
        {
          "indexed": true,
          "internalType": "address",
          "name": "walletAddress",
          "type": "address"
        },
        {
          "indexed": false,
          "internalType": "string",
          "name": "tokenURI",
          "type": "string"
        },
        {
          "indexed": false,
          "internalType": "uint256",
          "name": "timestamp",
          "type": "uint256"
        }
      ],
      "name": "AgentRegistered",
      "type": "event"
    },
    {
      "anonymous": false,
      "inputs": [
        {
          "indexed": true,
          "internalType": "uint256",
          "name": "agentId",
          "type": "uint256"
        },
        {
          "indexed": false,
          "internalType": "bool",
          "name": "isActive",
          "type": "bool"
        }
      ],
      "name": "AgentStatusChanged",
      "type": "event"
    },
    {
      "anonymous": false,
      "inputs": [
        {
          "indexed": true,
          "internalType": "address",
          "name": "owner",
          "type": "address"
        },
        {
          "indexed": true,
          "internalType": "address",
          "name": "approved",
          "type": "address"
        },
        {
          "indexed": true,
          "internalType": "uint256",
          "name": "tokenId",
          "type": "uint256"
        }
      ],
      "name": "Approval",
      "type": "event"
    },
    {
      "anonymous": false,
      "inputs": [
        {
          "indexed": true,
          "internalType": "address",
          "name": "owner",
          "type": "address"
        },
        {
          "indexed": true,
          "internalType": "address",
          "name": "operator",
          "type": "address"
        },
        {
          "indexed": false,
          "internalType": "bool",
          "name": "approved",
          "type": "bool"
        }
      ],
      "name": "ApprovalForAll",
      "type": "event"
    },
    {
      "anonymous": false,
      "inputs": [
        {
          "indexed": false,
          "internalType": "uint256",
          "name": "_fromTokenId",
          "type": "uint256"
        },
        {
          "indexed": false,
          "internalType": "uint256",
          "name": "_toTokenId",
          "type": "uint256"
        }
      ],
      "name": "BatchMetadataUpdate",
      "type": "event"
    },
    {
      "anonymous": false,
      "inputs": [
        {
          "indexed": true,
          "internalType": "uint256",
          "name": "agentId",
          "type": "uint256"
        },
        {
          "indexed": true,
          "internalType": "string",
          "name": "key",
          "type": "string"
        },
        {
          "indexed": false,
          "internalType": "bytes",
          "name": "value",
          "type": "bytes"
        }
      ],
      "name": "MetadataSet",
      "type": "event"
    },
    {
      "anonymous": false,
      "inputs": [
        {
          "indexed": false,
          "internalType": "uint256",
          "name": "_tokenId",
          "type": "uint256"
        }
      ],
      "name": "MetadataUpdate",
      "type": "event"
    },
    {
      "anonymous": false,
      "inputs": [
        {
          "indexed": true,
          "internalType": "address",
          "name": "previousOwner",
          "type": "address"
        },
        {
          "indexed": true,
          "internalType": "address",
          "name": "newOwner",
          "type": "address"
        }
      ],
      "name": "OwnershipTransferred",
      "type": "event"
    },
    {
      "anonymous": false,
      "inputs": [
        {
          "indexed": true,
          "internalType": "uint256",
          "name": "agentId",
          "type": "uint256"
        },
        {
          "indexed": false,
          "internalType": "uint256",
          "name": "newReputation",
          "type": "uint256"
        }
      ],
      "name": "ReputationUpdated",
      "type": "event"
    },
    {
      "anonymous": false,
      "inputs": [
        {
          "indexed": true,
          "internalType": "address",
          "name": "from",
          "type": "address"
        },
        {
          "indexed": true,
          "internalType": "address",
          "name": "to",
          "type": "address"
        },
        {
          "indexed": true,
          "internalType": "uint256",
          "name": "tokenId",
          "type": "uint256"
        }
      ],
      "name": "Transfer",
      "type": "event"
    },
    {
      "inputs": [
        {
          "internalType": "uint256",
          "name": "agentId",
          "type": "uint256"
        }
      ],
      "name": "agentExists",
      "outputs": [
        {
          "internalType": "bool",
          "name": "",
          "type": "bool"
        }
      ],
      "stateMutability": "view",
      "type": "function"
    },
    {
      "inputs": [
        {
          "internalType": "uint256",
          "name": "",
          "type": "uint256"
        },
        {
          "internalType": "string",
          "name": "",
          "type": "string"
        }
      ],
      "name": "agentMetadata",
      "outputs": [
        {
          "internalType": "bytes",
          "name": "",
          "type": "bytes"
        }
      ],
      "stateMutability": "view",
      "type": "function"
    },
    {
      "inputs": [
        {
          "internalType": "uint256",
          "name": "",
          "type": "uint256"
        }
      ],
      "name": "agentReputation",
      "outputs": [
        {
          "internalType": "uint256",
          "name": "",
          "type": "uint256"
        }
      ],
      "stateMutability": "view",
      "type": "function"
    },
    {
      "inputs": [
        {
          "internalType": "uint256",
          "name": "",
          "type": "uint256"
        }
      ],
      "name": "agentWallets",
      "outputs": [
        {
          "internalType": "address",
          "name": "",
          "type": "address"
        }
      ],
      "stateMutability": "view",
      "type": "function"
    },
    {
      "inputs": [
        {
          "internalType": "address",
          "name": "to",
          "type": "address"
        },
        {
          "internalType": "uint256",
          "name": "tokenId",
          "type": "uint256"
        }
      ],
      "name": "approve",
      "outputs": [],
      "stateMutability": "nonpayable",
      "type": "function"
    },
    {
      "inputs": [
        {
          "internalType": "address",
          "name": "owner",
          "type": "address"
        }
      ],
      "name": "balanceOf",
      "outputs": [
        {
          "internalType": "uint256",
          "name": "",
          "type": "uint256"
        }
      ],
      "stateMutability": "view",
      "type": "function"
    },
    {
      "inputs": [
        {
          "internalType": "uint256",
          "name": "agentId",
          "type": "uint256"
        }
      ],
      "name": "getAgentInfo",
      "outputs": [
        {
          "internalType": "address",
          "name": "wallet",
          "type": "address"
        },
        {
          "internalType": "string",
          "name": "uri",
          "type": "string"
        },
        {
          "internalType": "uint256",
          "name": "reputation",
          "type": "uint256"
        },
        {
          "internalType": "uint256",
          "name": "executions",
          "type": "uint256"
        },
        {
          "internalType": "bool",
          "name": "active",
          "type": "bool"
        }
      ],
      "stateMutability": "view",
      "type": "function"
    },
    {
      "inputs": [
        {
          "internalType": "uint256",
          "name": "agentId",
          "type": "uint256"
        }
      ],
      "name": "getAgentWallet",
      "outputs": [
        {
          "internalType": "address",
          "name": "",
          "type": "address"
        }
      ],
      "stateMutability": "view",
      "type": "function"
    },
    {
      "inputs": [
        {
          "internalType": "uint256",
          "name": "tokenId",
          "type": "uint256"
        }
      ],
      "name": "getApproved",
      "outputs": [
        {
          "internalType": "address",
          "name": "",
          "type": "address"
        }
      ],
      "stateMutability": "view",
      "type": "function"
    },
    {
      "inputs": [
        {
          "internalType": "uint256",
          "name": "agentId",
          "type": "uint256"
        },
        {
          "internalType": "string",
          "name": "key",
          "type": "string"
        }
      ],
      "name": "getMetadata",
      "outputs": [
        {
          "internalType": "bytes",
          "name": "",
          "type": "bytes"
        }
      ],
      "stateMutability": "view",
      "type": "function"
    },
    {
      "inputs": [
        {
          "internalType": "uint256",
          "name": "",
          "type": "uint256"
        }
      ],
      "name": "isAgentActive",
      "outputs": [
        {
          "internalType": "bool",
          "name": "",
          "type": "bool"
        }
      ],
      "stateMutability": "view",
      "type": "function"
    },
    {
      "inputs": [
        {
          "internalType": "address",
          "name": "owner",
          "type": "address"
        },
        {
          "internalType": "address",
          "name": "operator",
          "type": "address"
        }
      ],
      "name": "isApprovedForAll",
      "outputs": [
        {
          "internalType": "bool",
          "name": "",
          "type": "bool"
        }
      ],
      "stateMutability": "view",
      "type": "function"
    },
    {
      "inputs": [],
      "name": "name",
      "outputs": [
        {
          "internalType": "string",
          "name": "",
          "type": "string"
        }
      ],
      "stateMutability": "view",
      "type": "function"
    },
    {
      "inputs": [],
      "name": "owner",
      "outputs": [
        {
          "internalType": "address",
          "name": "",
          "type": "address"
        }
      ],
      "stateMutability": "view",
      "type": "function"
    },
    {
      "inputs": [
        {
          "internalType": "uint256",
          "name": "tokenId",
          "type": "uint256"
        }
      ],
      "name": "ownerOf",
      "outputs": [
        {
          "internalType": "address",
          "name": "",
          "type": "address"
        }
      ],
      "stateMutability": "view",
      "type": "function"
    },
    {
      "inputs": [
        {
          "internalType": "uint256",
          "name": "agentId",
          "type": "uint256"
        }
      ],
      "name": "recordExecution",
      "outputs": [],
      "stateMutability": "nonpayable",
      "type": "function"
    },
    {
      "inputs": [
        {
          "internalType": "address",
          "name": "walletAddress",
          "type": "address"
        },
        {
          "internalType": "string",
          "name": "tokenURI",
          "type": "string"
        }
      ],
      "name": "registerAgent",
      "outputs": [
        {
          "internalType": "uint256",
          "name": "",
          "type": "uint256"
        }
      ],
      "stateMutability": "nonpayable",
      "type": "function"
    },
    {
      "inputs": [],
      "name": "renounceOwnership",
      "outputs": [],
      "stateMutability": "nonpayable",
      "type": "function"
    },
    {
      "inputs": [
        {
          "internalType": "address",
          "name": "from",
          "type": "address"
        },
        {
          "internalType": "address",
          "name": "to",
          "type": "address"
        },
        {
          "internalType": "uint256",
          "name": "tokenId",
          "type": "uint256"
        }
      ],
      "name": "safeTransferFrom",
      "outputs": [],
      "stateMutability": "nonpayable",
      "type": "function"
    },
    {
      "inputs": [
        {
          "internalType": "address",
          "name": "from",
          "type": "address"
        },
        {
          "internalType": "address",
          "name": "to",
          "type": "address"
        },
        {
          "internalType": "uint256",
          "name": "tokenId",
          "type": "uint256"
        },
        {
          "internalType": "bytes",
          "name": "data",
          "type": "bytes"
        }
      ],
      "name": "safeTransferFrom",
      "outputs": [],
      "stateMutability": "nonpayable",
      "type": "function"
    },
    {
      "inputs": [
        {
          "internalType": "uint256",
          "name": "agentId",
          "type": "uint256"
        },
        {
          "internalType": "bool",
          "name": "active",
          "type": "bool"
        }
      ],
      "name": "setAgentStatus",
      "outputs": [],
      "stateMutability": "nonpayable",
      "type": "function"
    },
    {
      "inputs": [
        {
          "internalType": "address",
          "name": "operator",
          "type": "address"
        },
        {
          "internalType": "bool",
          "name": "approved",
          "type": "bool"
        }
      ],
      "name": "setApprovalForAll",
      "outputs": [],
      "stateMutability": "nonpayable",
      "type": "function"
    },
    {
      "inputs": [
        {
          "internalType": "uint256",
          "name": "agentId",
          "type": "uint256"
        },
        {
          "internalType": "string",
          "name": "key",
          "type": "string"
        },
        {
          "internalType": "bytes",
          "name": "value",
          "type": "bytes"
        }
      ],
      "name": "setMetadata",
      "outputs": [],
      "stateMutability": "nonpayable",
      "type": "function"
    },
    {
      "inputs": [
        {
          "internalType": "bytes4",
          "name": "interfaceId",
          "type": "bytes4"
        }
      ],
      "name": "supportsInterface",
      "outputs": [
        {
          "internalType": "bool",
          "name": "",
          "type": "bool"
        }
      ],
      "stateMutability": "view",
      "type": "function"
    },
    {
      "inputs": [],
      "name": "symbol",
      "outputs": [
        {
          "internalType": "string",
          "name": "",
          "type": "string"
        }
      ],
      "stateMutability": "view",
      "type": "function"
    },
    {
      "inputs": [
        {
          "internalType": "uint256",
          "name": "tokenId",
          "type": "uint256"
        }
      ],
      "name": "tokenURI",
      "outputs": [
        {
          "internalType": "string",
          "name": "",
          "type": "string"
        }
      ],
      "stateMutability": "view",
      "type": "function"
    },
    {
      "inputs": [],
      "name": "totalAgents",
      "outputs": [
        {
          "internalType": "uint256",
          "name": "",
          "type": "uint256"
        }
      ],
      "stateMutability": "view",
      "type": "function"
    },
    {
      "inputs": [
        {
          "internalType": "uint256",
          "name": "",
          "type": "uint256"
        }
      ],
      "name": "totalExecutions",
      "outputs": [
        {
          "internalType": "uint256",
          "name": "",
          "type": "uint256"
        }
      ],
      "stateMutability": "view",
      "type": "function"
    },
    {
      "inputs": [
        {
          "internalType": "address",
          "name": "from",
          "type": "address"
        },
        {
          "internalType": "address",
          "name": "to",
          "type": "address"
        },
        {
          "internalType": "uint256",
          "name": "tokenId",
          "type": "uint256"
        }
      ],
      "name": "transferFrom",
      "outputs": [],
      "stateMutability": "nonpayable",
      "type": "function"
    },
    {
      "inputs": [
        {
          "internalType": "address",
          "name": "newOwner",
          "type": "address"
        }
      ],
      "name": "transferOwnership",
      "outputs": [],
      "stateMutability": "nonpayable",
      "type": "function"
    },
    {
      "inputs": [
        {
          "internalType": "uint256",
          "name": "agentId",
          "type": "uint256"
        },
        {
          "internalType": "uint256",
          "name": "reputation",
          "type": "uint256"
        }
      ],
      "name": "updateReputation",
      "outputs": [],
      "stateMutability": "nonpayable",
      "type": "function"
    }
  ],
  "bytecode": "0x60806040523480156200001157600080fd5b50336040518060400160405280601081526020016f151c985d995b15da5cd9481059d95b9d60821b815250604051806040016040528060078152602001661515d051d1539560ca1b81525081600090816200006d9190620001bc565b5060016200007c8282620001bc565b5050506001600160a01b038116620000ae57604051631e4fbdf760e01b81526000600482015260240160405180910390fd5b620000b981620000c5565b50600160085562000288565b600780546001600160a01b038381166001600160a01b0319831681179093556040519116919082907f8be0079c531659141344cd1fd0a4f28419497f9722a3daafe3b4186f6b6457e090600090a35050565b634e487b7160e01b600052604160045260246000fd5b600181811c908216806200014257607f821691505b6020821081036200016357634e487b7160e01b600052602260045260246000fd5b50919050565b601f821115620001b757600081815260208120601f850160051c81016020861015620001925750805b601f850160051c820191505b81811015620001b3578281556001016200019e565b5050505b505050565b81516001600160401b03811115620001d857620001d862000117565b620001f081620001e984546200012d565b8462000169565b602080601f8311600181146200022857600084156200020f5750858301515b600019600386901b1c1916600185901b178555620001b3565b600085815260208120601f198616915b82811015620002595788860151825594840194600190910190840162000238565b5085821015620002785787850151600019600388901b60f8161c191681555b5050505050600190811b01905550565b611f0e80620002986000396000f3fe608060405234801561001057600080fd5b50600436106101e45760003560e01c80636352211e1161010f578063c87b56dd116100a2578063debfc4ef11610071578063debfc4ef14610434578063e985e9c514610454578063ebf1f85914610467578063f2fde38b1461049057600080fd5b8063c87b56dd146103e8578063cac54bb7146103fb578063cb4799f21461040e578063de99f1571461042157600080fd5b806395d89b41116100de57806395d89b41146103b2578063a22cb465146103ba578063b88d4fde146103cd578063c5053712146103e057600080fd5b80636352211e1461037357806370a0823114610386578063715018a6146103995780638da5cb5b146103a157600080fd5b806319a6a6e9116101875780632bad1ea2116101565780632bad1ea21461030a578063392d2d8e1461032a57806342842e0e1461034d578063466648da1461036057600080fd5b806319a6a6e91461029f5780631bc51e7d146102c357806322b833d8146102d657806323b872dd146102f757600080fd5b806306fdde03116101c357806306fdde0314610251578063081812fc14610266578063095ea7b3146102795780630e1a2de91461028c57600080fd5b8062339509146101e957806301ffc9a7146102195780630675f7631461023c575b600080fd5b6101fc6101f7366004611829565b6104a3565b6040516001600160a01b0390911681526020015b60405180910390f35b61022c610227366004611858565b6104fa565b6040519015158152602001610210565b61024f61024a366004611875565b610525565b005b6102596105ff565b60405161021091906118e7565b6101fc610274366004611829565b610691565b61024f610287366004611916565b6106ba565b61024f61029a366004611829565b6106c9565b6102b26102ad366004611829565b61071c565b604051610210959493929190611940565b61024f6102d1366004611993565b6107aa565b6102e96102e4366004611a62565b610833565b604051908152602001610210565b61024f610305366004611ab0565b610a4e565b6102e9610318366004611829565b600c6020526000908152604090205481565b61022c610338366004611829565b600d6020526000908152604090205460ff1681565b61024f61035b366004611ab0565b610ad9565b61024f61036e366004611aec565b610af9565b6101fc610381366004611829565b610bc2565b6102e9610394366004611b59565b610bcd565b61024f610c15565b6007546001600160a01b03166101fc565b610259610c29565b61024f6103c8366004611b74565b610c38565b61024f6103db366004611b9e565b610c43565b6102e9610c5b565b6102596103f6366004611829565b610c71565b610259610409366004611c06565b610d82565b61025961041c366004611c06565b610e38565b61022c61042f366004611829565b610f27565b6102e9610442366004611829565b600b6020526000908152604090205481565b61022c610462366004611c37565b610f44565b6101fc610475366004611829565b600a602052600090815260409020546001600160a01b031681565b61024f61049e366004611b59565b610f72565b6000806104af83610fb0565b6001600160a01b0316036104de5760405162461bcd60e51b81526004016104d590611c61565b60405180910390fd5b506000908152600a60205260409020546001600160a01b031690565b60006001600160e01b03198216632483248360e11b148061051f575061051f82610fcb565b92915050565b61052d61101b565b600061053883610fb0565b6001600160a01b03160361055e5760405162461bcd60e51b81526004016104d590611c61565b60648111156105af5760405162461bcd60e51b815260206004820152601860248201527f52657075746174696f6e206d75737420626520302d313030000000000000000060448201526064016104d5565b6000828152600b6020526040908190208290555182907ea4f8488cd701f9a77136eb5c91d5e2edef3c38001ca7148525acf8a2626481906105f39084815260200190565b60405180910390a25050565b60606000805461060e90611c8f565b80601f016020809104026020016040519081016040528092919081815260200182805461063a90611c8f565b80156106875780601f1061065c57610100808354040283529160200191610687565b820191906000526020600020905b81548152906001019060200180831161066a57829003601f168201915b5050505050905090565b600061069c82611048565b506000828152600460205260409020546001600160a01b031661051f565b6106c5828233611080565b5050565b60006106d482610fb0565b6001600160a01b0316036106fa5760405162461bcd60e51b81526004016104d590611c61565b6000818152600c6020526040812080549161071483611cdf565b919050555050565b600060608180808061072d87610fb0565b6001600160a01b0316036107535760405162461bcd60e51b81526004016104d590611c61565b6000868152600a60205260409020546001600160a01b031661077487610c71565b6000978852600b60209081526040808a2054600c8352818b2054600d909352992054929991989750955060ff9091169350915050565b6107b261101b565b60006107bd83610fb0565b6001600160a01b0316036107e35760405162461bcd60e51b81526004016104d590611c61565b6000828152600d6020908152604091829020805460ff1916841515908117909155915191825283917f5b7fa91ee392647b777096db0d386dc7cb7a3bfbc86ae6a10e0500de3a5ad02f91016105f3565b600061083d61101b565b6001600160a01b03831661088c5760405162461bcd60e51b8152602060048201526016602482015275496e76616c69642077616c6c6574206164647265737360501b60448201526064016104d5565b60008251116108cf5760405162461bcd60e51b815260206004820152600f60248201526e456d70747920746f6b656e2055524960881b60448201526064016104d5565b60088054600091826108e083611cdf565b9190505590506108f0338261108d565b6108fa81846110a7565b6000818152600a602090815260409182902080546001600160a01b0319166001600160a01b0388169081179091558251918201520160408051808303601f1901815282825260008481526009602052919091206a1859d95b9d15d85b1b195d60aa1b83529091600b019081526020016040518091039020908161097d9190611d3e565b50604080514260208201520160408051808303601f1901815282825260008481526009602052919091206b1c9959da5cdd195c9959105d60a21b83529091600c01908152602001604051809103902090816109d89190611d3e565b506000818152600b6020908152604080832060329055600d90915290819020805460ff19166001179055516001600160a01b0385169082907fc29f819ac362ff9c94de06666235808451aafd8894a2dffb86a080a965efeae390610a3f9087904290611dfe565b60405180910390a39392505050565b6001600160a01b038216610a7857604051633250574960e11b8152600060048201526024016104d5565b6000610a858383336110f7565b9050836001600160a01b0316816001600160a01b031614610ad3576040516364283d7b60e01b81526001600160a01b03808616600483015260248201849052821660448201526064016104d5565b50505050565b610af483838360405180602001604052806000815250610c43565b505050565b610b0161101b565b6000610b0c84610fb0565b6001600160a01b031603610b325760405162461bcd60e51b81526004016104d590611c61565b806009600085815260200190815260200160002083604051610b549190611e20565b90815260200160405180910390209081610b6e9190611d3e565b5081604051610b7d9190611e20565b6040518091039020837fbe801459d6f80018e95b17fe1dd4130fcde9f7f880559fcc798346f8eec9b98183604051610bb591906118e7565b60405180910390a3505050565b600061051f82611048565b60006001600160a01b038216610bf9576040516322718ad960e21b8152600060048201526024016104d5565b506001600160a01b031660009081526003602052604090205490565b610c1d61101b565b610c2760006111eb565b565b60606001805461060e90611c8f565b6106c533838361123d565b610c4e848484610a4e565b610ad333858585856112d4565b60006001600854610c6c9190611e3c565b905090565b6060610c7c82611048565b5060008281526006602052604081208054610c9690611c8f565b80601f0160208091040260200160405190810160405280929190818152602001828054610cc290611c8f565b8015610d0f5780601f10610ce457610100808354040283529160200191610d0f565b820191906000526020600020905b815481529060010190602001808311610cf257829003601f168201915b505050505090506000610d2d60408051602081019091526000815290565b90508051600003610d3f575092915050565b815115610d71578082604051602001610d59929190611e4f565b60405160208183030381529060405292505050919050565b610d7a846113ff565b949350505050565b6009602090815260009283526040909220815180830184018051928152908401929093019190912091528054610db790611c8f565b80601f0160208091040260200160405190810160405280929190818152602001828054610de390611c8f565b8015610e305780601f10610e0557610100808354040283529160200191610e30565b820191906000526020600020905b815481529060010190602001808311610e1357829003601f168201915b505050505081565b60606000610e4584610fb0565b6001600160a01b031603610e6b5760405162461bcd60e51b81526004016104d590611c61565b600083815260096020526040908190209051610e88908490611e20565b90815260200160405180910390208054610ea190611c8f565b80601f0160208091040260200160405190810160405280929190818152602001828054610ecd90611c8f565b8015610f1a5780601f10610eef57610100808354040283529160200191610f1a565b820191906000526020600020905b815481529060010190602001808311610efd57829003601f168201915b5050505050905092915050565b600080610f3383610fb0565b6001600160a01b0316141592915050565b6001600160a01b03918216600090815260056020908152604080832093909416825291909152205460ff1690565b610f7a61101b565b6001600160a01b038116610fa457604051631e4fbdf760e01b8152600060048201526024016104d5565b610fad816111eb565b50565b6000908152600260205260409020546001600160a01b031690565b60006001600160e01b031982166380ac58cd60e01b1480610ffc57506001600160e01b03198216635b5e139f60e01b145b8061051f57506301ffc9a760e01b6001600160e01b031983161461051f565b6007546001600160a01b03163314610c275760405163118cdaa760e01b81523360048201526024016104d5565b60008061105483610fb0565b90506001600160a01b03811661051f57604051637e27328960e01b8152600481018490526024016104d5565b610af48383836001611474565b6106c582826040518060200160405280600081525061157a565b60008281526006602052604090206110bf8282611d3e565b506040518281527ff8e1a15aba9398e019f0b49df1a4fde98ee17ae345cb5f6b5e2c27f5033e8ce79060200160405180910390a15050565b60008061110384610fb0565b90506001600160a01b0383161561111f5761111f818486611592565b6001600160a01b0381161561115d5761113c600085600080611474565b6001600160a01b038116600090815260036020526040902080546000190190555b6001600160a01b0385161561118c576001600160a01b0385166000908152600360205260409020805460010190555b60008481526002602052604080822080546001600160a01b0319166001600160a01b0389811691821790925591518793918516917fddf252ad1be2c89b69c2b068fc378daa952ba7f163c4a11628f55a4df523b3ef91a4949350505050565b600780546001600160a01b038381166001600160a01b0319831681179093556040519116919082907f8be0079c531659141344cd1fd0a4f28419497f9722a3daafe3b4186f6b6457e090600090a35050565b6001600160a01b03821661126f57604051630b61174360e31b81526001600160a01b03831660048201526024016104d5565b6001600160a01b03838116600081815260056020908152604080832094871680845294825291829020805460ff191686151590811790915591519182527f17307eab39ab6107e8899845ad3d59bd9653f200f220920489ca2b5937696c319101610bb5565b6001600160a01b0383163b156113f857604051630a85bd0160e11b81526001600160a01b0384169063150b7a0290611316908890889087908790600401611e7e565b6020604051808303816000875af1925050508015611351575060408051601f3d908101601f1916820190925261134e91810190611ebb565b60015b6113ba573d80801561137f576040519150601f19603f3d011682016040523d82523d6000602084013e611384565b606091505b5080516000036113b257604051633250574960e11b81526001600160a01b03851660048201526024016104d5565b805160208201fd5b6001600160e01b03198116630a85bd0160e11b146113f657604051633250574960e11b81526001600160a01b03851660048201526024016104d5565b505b5050505050565b606061140a82611048565b50600061142260408051602081019091526000815290565b90506000815111611442576040518060200160405280600081525061146d565b8061144c846115f6565b60405160200161145d929190611e4f565b6040516020818303038152906040525b9392505050565b808061148857506001600160a01b03821615155b1561154a57600061149884611048565b90506001600160a01b038316158015906114c45750826001600160a01b0316816001600160a01b031614155b80156114d757506114d58184610f44565b155b156115005760405163a9fbf51f60e01b81526001600160a01b03841660048201526024016104d5565b81156115485783856001600160a01b0316826001600160a01b03167f8c5be1e5ebec7d5bd14f71427d1e84f3dd0314c0f7b2291e5b200ac8c7c3b92560405160405180910390a45b505b5050600090815260046020526040902080546001600160a01b0319166001600160a01b0392909216919091179055565b6115848383611689565b610af43360008585856112d4565b61159d8383836116ee565b610af4576001600160a01b0383166115cb57604051637e27328960e01b8152600481018290526024016104d5565b60405163177e802f60e01b81526001600160a01b0383166004820152602481018290526044016104d5565b6060600061160383611751565b600101905060008167ffffffffffffffff811115611623576116236119bf565b6040519080825280601f01601f19166020018201604052801561164d576020820181803683370190505b5090508181016020015b600019016f181899199a1a9b1b9c1cb0b131b232b360811b600a86061a8153600a850494508461165757509392505050565b6001600160a01b0382166116b357604051633250574960e11b8152600060048201526024016104d5565b60006116c1838360006110f7565b90506001600160a01b03811615610af4576040516339e3563760e11b8152600060048201526024016104d5565b60006001600160a01b03831615801590610d7a5750826001600160a01b0316846001600160a01b0316148061172857506117288484610f44565b80610d7a5750506000908152600460205260409020546001600160a01b03908116911614919050565b60008072184f03e93ff9f4daa797ed6e38ed64bf6a1f0160401b83106117905772184f03e93ff9f4daa797ed6e38ed64bf6a1f0160401b830492506040015b6d04ee2d6d415b85acef810000000083106117bc576d04ee2d6d415b85acef8100000000830492506020015b662386f26fc1000083106117da57662386f26fc10000830492506010015b6305f5e10083106117f2576305f5e100830492506008015b612710831061180657612710830492506004015b60648310611818576064830492506002015b600a831061051f5760010192915050565b60006020828403121561183b57600080fd5b5035919050565b6001600160e01b031981168114610fad57600080fd5b60006020828403121561186a57600080fd5b813561146d81611842565b6000806040838503121561188857600080fd5b50508035926020909101359150565b60005b838110156118b257818101518382015260200161189a565b50506000910152565b600081518084526118d3816020860160208601611897565b601f01601f19169290920160200192915050565b60208152600061146d60208301846118bb565b80356001600160a01b038116811461191157600080fd5b919050565b6000806040838503121561192957600080fd5b611932836118fa565b946020939093013593505050565b6001600160a01b038616815260a060208201819052600090611964908301876118bb565b6040830195909552506060810192909252151560809091015292915050565b8035801515811461191157600080fd5b600080604083850312156119a657600080fd5b823591506119b660208401611983565b90509250929050565b634e487b7160e01b600052604160045260246000fd5b600082601f8301126119e657600080fd5b813567ffffffffffffffff80821115611a0157611a016119bf565b604051601f8301601f19908116603f01168101908282118183101715611a2957611a296119bf565b81604052838152866020858801011115611a4257600080fd5b836020870160208301376000602085830101528094505050505092915050565b60008060408385031215611a7557600080fd5b611a7e836118fa565b9150602083013567ffffffffffffffff811115611a9a57600080fd5b611aa6858286016119d5565b9150509250929050565b600080600060608486031215611ac557600080fd5b611ace846118fa565b9250611adc602085016118fa565b9150604084013590509250925092565b600080600060608486031215611b0157600080fd5b83359250602084013567ffffffffffffffff80821115611b2057600080fd5b611b2c878388016119d5565b93506040860135915080821115611b4257600080fd5b50611b4f868287016119d5565b9150509250925092565b600060208284031215611b6b57600080fd5b61146d826118fa565b60008060408385031215611b8757600080fd5b611b90836118fa565b91506119b660208401611983565b60008060008060808587031215611bb457600080fd5b611bbd856118fa565b9350611bcb602086016118fa565b925060408501359150606085013567ffffffffffffffff811115611bee57600080fd5b611bfa878288016119d5565b91505092959194509250565b60008060408385031215611c1957600080fd5b82359150602083013567ffffffffffffffff811115611a9a57600080fd5b60008060408385031215611c4a57600080fd5b611c53836118fa565b91506119b6602084016118fa565b6020808252601490820152731059d95b9d08191bd95cc81b9bdd08195e1a5cdd60621b604082015260600190565b600181811c90821680611ca357607f821691505b602082108103611cc357634e487b7160e01b600052602260045260246000fd5b50919050565b634e487b7160e01b600052601160045260246000fd5b600060018201611cf157611cf1611cc9565b5060010190565b601f821115610af457600081815260208120601f850160051c81016020861015611d1f5750805b601f850160051c820191505b818110156113f657828155600101611d2b565b815167ffffffffffffffff811115611d5857611d586119bf565b611d6c81611d668454611c8f565b84611cf8565b602080601f831160018114611da15760008415611d895750858301515b600019600386901b1c1916600185901b1785556113f6565b600085815260208120601f198616915b82811015611dd057888601518255948401946001909101908401611db1565b5085821015611dee5787850151600019600388901b60f8161c191681555b5050505050600190811b01905550565b604081526000611e1160408301856118bb565b90508260208301529392505050565b60008251611e32818460208701611897565b9190910192915050565b8181038181111561051f5761051f611cc9565b60008351611e61818460208801611897565b835190830190611e75818360208801611897565b01949350505050565b6001600160a01b0385811682528416602082015260408101839052608060608201819052600090611eb1908301846118bb565b9695505050505050565b600060208284031215611ecd57600080fd5b815161146d8161184256fea26469706673582212200f5f48b436a08585526e865869512ebda878c85b0c26ad2cc82bb4d54353ad2264736f6c63430008140033",
  "linkReferences": {},
  "deployedLinkReferences": {}
}