{
  "_format": "hh-sol-artifact-1",
  "contractName": "ReputationRegistry",
  "sourceName": "contracts/ReputationRegistry.sol",
  "abi": [
    {
      "anonymous": false,
      "inputs": [
        {
          "indexed": true,
          "internalType": "uint256",
          "name": "agentId",
          "type": "uint256"
        },
        {
          "indexed": true,
          "internalType": "address",
          "name": "reviewer",
          "type": "address"
        },
        {
          "indexed": false,
          "internalType": "uint256",
          "name": "feedbackIndex",
          "type": "uint256"
        }
      ],
      "name": "FeedbackRevoked",
      "type": "event"
    },
    {
      "anonymous": false,
      "inputs": [
        {
          "indexed": true,
          "internalType": "uint256",
          "name": "agentId",
          "type": "uint256"
        },
        {
          "indexed": true,
          "internalType": "address",
          "name": "reviewer",
          "type": "address"
        },
        {
          "indexed": false,
          "internalType": "uint8",
          "name": "score",
          "type": "uint8"
        },
        {
          "indexed": false,
          "internalType": "string",
          "name": "feedbackURI",
          "type": "string"
        },
        {
          "indexed": false,
          "internalType": "bytes32",
          "name": "proofOfPayment",
          "type": "bytes32"
        }
      ],
      "name": "FeedbackSubmitted",
      "type": "event"
    },
    {
      "anonymous": false,
      "inputs": [
        {
          "indexed": true,
          "internalType": "address",
          "name": "previousOwner",
          "type": "address"
        },
        {
          "indexed": true,
          "internalType": "address",
          "name": "newOwner",
          "type": "address"
        }
      ],
      "name": "OwnershipTransferred",
      "type": "event"
    },
    {
      "inputs": [
        {
          "internalType": "uint256",
          "name": "",
          "type": "uint256"
        },
        {
          "internalType": "uint256",
          "name": "",
          "type": "uint256"
        }
      ],
      "name": "agentFeedback",
      "outputs": [
        {
          "internalType": "address",
          "name": "reviewer",
          "type": "address"
        },
        {
          "internalType": "uint8",
          "name": "score",
          "type": "uint8"
        },
        {
          "internalType": "string",
          "name": "feedbackURI",
          "type": "string"
        },
        {
          "internalType": "bytes32",
          "name": "proofOfPayment",
          "type": "bytes32"
        },
        {
          "internalType": "uint256",
          "name": "timestamp",
          "type": "uint256"
        },
        {
          "internalType": "bool",
          "name": "revoked",
          "type": "bool"
        }
      ],
      "stateMutability": "view",
      "type": "function"
    },
    {
      "inputs": [
        {
          "internalType": "uint256",
          "name": "agentId",
          "type": "uint256"
        }
      ],
      "name": "getAgentFeedback",
      "outputs": [
        {
          "components": [
            {
              "internalType": "address",
              "name": "reviewer",
              "type": "address"
            },
            {
              "internalType": "uint8",
              "name": "score",
              "type": "uint8"
            },
            {
              "internalType": "string",
              "name": "feedbackURI",
              "type": "string"
            },
            {
              "internalType": "bytes32",
              "name": "proofOfPayment",
              "type": "bytes32"
            },
            {
              "internalType": "uint256",
              "name": "timestamp",
              "type": "uint256"
            },
            {
              "internalType": "bool",
              "name": "revoked",
              "type": "bool"
            }
          ],
          "internalType": "struct ReputationRegistry.Feedback[]",
          "name": "",
          "type": "tuple[]"
        }
      ],
      "stateMutability": "view",
      "type": "function"
    },
    {
      "inputs": [
        {
          "internalType": "uint256",
          "name": "agentId",
          "type": "uint256"
        }
      ],
      "name": "getReputation",
      "outputs": [
        {
          "components": [
            {
              "internalType": "uint256",
              "name": "totalFeedback",
              "type": "uint256"
            },
            {
              "internalType": "uint256",
              "name": "averageScore",
              "type": "uint256"
            },
            {
              "internalType": "uint256",
              "name": "lastUpdated",
              "type": "uint256"
            }
          ],
          "internalType": "struct ReputationRegistry.ReputationSummary",
          "name": "",
          "type": "tuple"
        }
      ],
      "stateMutability": "view",
      "type": "function"
    },
    {
      "inputs": [
        {
          "internalType": "uint256",
          "name": "",
          "type": "uint256"
        },
        {
          "internalType": "address",
          "name": "",
          "type": "address"
        }
      ],
      "name": "hasReviewed",
      "outputs": [
        {
          "internalType": "bool",
          "name": "",
          "type": "bool"
        }
      ],
      "stateMutability": "view",
      "type": "function"
    },
    {
      "inputs": [],
      "name": "owner",
      "outputs": [
        {
          "internalType": "address",
          "name": "",
          "type": "address"
        }
      ],
      "stateMutability": "view",
      "type": "function"
    },
    {
      "inputs": [],
      "name": "renounceOwnership",
      "outputs": [],
      "stateMutability": "nonpayable",
      "type": "function"
    },
    {
      "inputs": [
        {
          "internalType": "uint256",
          "name": "",
          "type": "uint256"
        }
      ],
      "name": "reputations",
      "outputs": [
        {
          "internalType": "uint256",
          "name": "totalFeedback",
          "type": "uint256"
        },
        {
          "internalType": "uint256",
          "name": "averageScore",
          "type": "uint256"
        },
        {
          "internalType": "uint256",
          "name": "lastUpdated",
          "type": "uint256"
        }
      ],
      "stateMutability": "view",
      "type": "function"
    },
    {
      "inputs": [
        {
          "internalType": "uint256",
          "name": "agentId",
          "type": "uint256"
        },
        {
          "internalType": "uint256",
          "name": "feedbackIndex",
          "type": "uint256"
        }
      ],
      "name": "revokeFeedback",
      "outputs": [],
      "stateMutability": "nonpayable",
      "type": "function"
    },
    {
      "inputs": [
        {
          "internalType": "uint256",
          "name": "agentId",
          "type": "uint256"
        },
        {
          "internalType": "uint8",
          "name": "score",
          "type": "uint8"
        },
        {
          "internalType": "string",
          "name": "feedbackURI",
          "type": "string"
        },
        {
          "internalType": "bytes32",
          "name": "proofOfPayment",
          "type": "bytes32"
        }
      ],
      "name": "submitFeedback",
      "outputs": [],
      "stateMutability": "nonpayable",
      "type": "function"
    },
    {
      "inputs": [
        {
          "internalType": "address",
          "name": "newOwner",
          "type": "address"
        }
      ],
      "name": "transferOwnership",
      "outputs": [],
      "stateMutability": "nonpayable",
      "type": "function"
    }
  ],
  "bytecode": "0x608060405234801561001057600080fd5b5061001a3361001f565b61006f565b600080546001600160a01b038381166001600160a01b0319831681178455604051919092169283917f8be0079c531659141344cd1fd0a4f28419497f9722a3daafe3b4186f6b6457e09190a35050565b6110d28061007e6000396000f3fe608060405234801561001057600080fd5b506004361061009e5760003560e01c80638da5cb5b116100665780638da5cb5b14610197578063c87c09f5146101b2578063de168f39146101d2578063e9780f25146101e5578063f2fde38b146101f857600080fd5b806336126d06146100a3578063715018a6146100d157806372fa9b85146100db5780637c7198cc1461012457806389370d8b14610162575b600080fd5b6100b66100b1366004610bcf565b61020b565b6040516100c896959493929190610c37565b60405180910390f35b6100d96102fc565b005b6101096100e9366004610c84565b600260208190526000918252604090912080546001820154919092015483565b604080519384526020840192909252908201526060016100c8565b610152610132366004610cb9565b600360209081526000928352604080842090915290825290205460ff1681565b60405190151581526020016100c8565b610175610170366004610c84565b610310565b60408051825181526020808401519082015291810151908201526060016100c8565b6000546040516001600160a01b0390911681526020016100c8565b6101c56101c0366004610c84565b61036d565b6040516100c89190610ce5565b6100d96101e0366004610daa565b6104c0565b6100d96101f3366004610bcf565b6106f8565b6100d9610206366004610e85565b61088c565b6001602052816000526040600020818154811061022757600080fd5b6000918252602090912060059091020180546001820180546001600160a01b0383169550600160a01b90920460ff1693509061026290610ea7565b80601f016020809104026020016040519081016040528092919081815260200182805461028e90610ea7565b80156102db5780601f106102b0576101008083540402835291602001916102db565b820191906000526020600020905b8154815290600101906020018083116102be57829003601f168201915b50505050600283015460038401546004909401549293909290915060ff1686565b610304610905565b61030e600061095f565b565b61033460405180606001604052806000815260200160008152602001600081525090565b50600090815260026020818152604092839020835160608101855281548152600182015492810192909252909101549181019190915290565b606060016000838152602001908152602001600020805480602002602001604051908101604052809291908181526020016000905b828210156104b55760008481526020908190206040805160c0810182526005860290920180546001600160a01b0381168452600160a01b900460ff1693830193909352600183018054929392918401916103fb90610ea7565b80601f016020809104026020016040519081016040528092919081815260200182805461042790610ea7565b80156104745780601f1061044957610100808354040283529160200191610474565b820191906000526020600020905b81548152906001019060200180831161045757829003601f168201915b505050918352505060028201546020808301919091526003830154604083015260049092015460ff16151560609091015290825260019290920191016103a2565b505050509050919050565b60648360ff16111561050f5760405162461bcd60e51b8152602060048201526013602482015272053636f7265206d75737420626520302d31303606c1b60448201526064015b60405180910390fd5b60008251116105585760405162461bcd60e51b815260206004820152601560248201527411995959189858dac8155492481c995c5d5a5c9959605a1b6044820152606401610506565b600084815260036020908152604080832033845290915290205460ff16156105b55760405162461bcd60e51b815260206004820152601060248201526f105b1c9958591e481c995d9a595dd95960821b6044820152606401610506565b6040805160c08101825233815260ff808616602080840191825283850187815260608501879052426080860152600060a086018190528a8152600180845296812080548089018255908252929020855160059093020180549351909416600160a01b026001600160a81b03199093166001600160a01b03929092169190911791909117825551919283929082019061064d9082610f30565b5060608201516002820155608082015160038083019190915560a0909201516004909101805491151560ff1992831617905560008781526020928352604080822033835290935291909120805490911660011790556106ab856109af565b336001600160a01b0316857f742675cc61396bd70932ef0a5230283a899b8ea590a9ea1c3610185f9869c5778686866040516106e993929190610ff0565b60405180910390a35050505050565b600082815260016020526040902054811061074e5760405162461bcd60e51b8152602060048201526016602482015275092dcecc2d8d2c840cccacac8c4c2c6d640d2dcc8caf60531b6044820152606401610506565b600082815260016020526040812080548390811061076e5761076e61101c565b6000918252602090912060059091020180549091506001600160a01b031633146107ce5760405162461bcd60e51b81526020600482015260116024820152704e6f7420796f757220666565646261636b60781b6044820152606401610506565b600481015460ff16156108155760405162461bcd60e51b815260206004820152600f60248201526e105b1c9958591e481c995d9bdad959608a1b6044820152606401610506565b60048101805460ff199081166001179091556000848152600360209081526040808320338452909152902080549091169055610850836109af565b604051828152339084907fd5e881269f28389ffddb41edd8dcace249471d58662bb4e062e74d2f662778759060200160405180910390a3505050565b610894610905565b6001600160a01b0381166108f95760405162461bcd60e51b815260206004820152602660248201527f4f776e61626c653a206e6577206f776e657220697320746865207a65726f206160448201526564647265737360d01b6064820152608401610506565b6109028161095f565b50565b6000546001600160a01b0316331461030e5760405162461bcd60e51b815260206004820181905260248201527f4f776e61626c653a2063616c6c6572206973206e6f7420746865206f776e65726044820152606401610506565b600080546001600160a01b038381166001600160a01b0319831681178455604051919092169283917f8be0079c531659141344cd1fd0a4f28419497f9722a3daafe3b4186f6b6457e09190a35050565b600081815260016020908152604080832080548251818502810185019093528083529192909190849084015b82821015610aee5760008481526020908190206040805160c0810182526005860290920180546001600160a01b0381168452600160a01b900460ff169383019390935260018301805492939291840191610a3490610ea7565b80601f0160208091040260200160405190810160405280929190818152602001828054610a6090610ea7565b8015610aad5780601f10610a8257610100808354040283529160200191610aad565b820191906000526020600020905b815481529060010190602001808311610a9057829003601f168201915b505050918352505060028201546020808301919091526003830154604083015260049092015460ff16151560609091015290825260019290920191016109db565b50505050905060008060005b8351811015610b7357838181518110610b1557610b1561101c565b602002602001015160a00151610b6157838181518110610b3757610b3761101c565b60200260200101516020015160ff1683610b519190611048565b925081610b5d81611061565b9250505b80610b6b81611061565b915050610afa565b506000808211610b84576000610b8e565b610b8e828461107a565b604080516060810182529384526020808501928352428583019081526000988952600291829052919097209351845590516001840155519190940155505050565b60008060408385031215610be257600080fd5b50508035926020909101359150565b6000815180845260005b81811015610c1757602081850181015186830182015201610bfb565b506000602082860101526020601f19601f83011685010191505092915050565b6001600160a01b038716815260ff8616602082015260c060408201819052600090610c6490830187610bf1565b6060830195909552506080810192909252151560a0909101529392505050565b600060208284031215610c9657600080fd5b5035919050565b80356001600160a01b0381168114610cb457600080fd5b919050565b60008060408385031215610ccc57600080fd5b82359150610cdc60208401610c9d565b90509250929050565b60006020808301818452808551808352604092508286019150828160051b87010184880160005b83811015610d8657888303603f19018552815180516001600160a01b031684528781015160ff16888501528681015160c088860181905290610d5082870182610bf1565b606084810151908801526080808501519088015260a0938401511515939096019290925250509386019390860190600101610d0c565b509098975050505050505050565b634e487b7160e01b600052604160045260246000fd5b60008060008060808587031215610dc057600080fd5b84359350602085013560ff81168114610dd857600080fd5b9250604085013567ffffffffffffffff80821115610df557600080fd5b818701915087601f830112610e0957600080fd5b813581811115610e1b57610e1b610d94565b604051601f8201601f19908116603f01168101908382118183101715610e4357610e43610d94565b816040528281528a6020848701011115610e5c57600080fd5b826020860160208301376000928101602001929092525095989497509495606001359450505050565b600060208284031215610e9757600080fd5b610ea082610c9d565b9392505050565b600181811c90821680610ebb57607f821691505b602082108103610edb57634e487b7160e01b600052602260045260246000fd5b50919050565b601f821115610f2b57600081815260208120601f850160051c81016020861015610f085750805b601f850160051c820191505b81811015610f2757828155600101610f14565b5050505b505050565b815167ffffffffffffffff811115610f4a57610f4a610d94565b610f5e81610f588454610ea7565b84610ee1565b602080601f831160018114610f935760008415610f7b5750858301515b600019600386901b1c1916600185901b178555610f27565b600085815260208120601f198616915b82811015610fc257888601518255948401946001909101908401610fa3565b5085821015610fe05787850151600019600388901b60f8161c191681555b5050505050600190811b01905550565b60ff8416815260606020820152600061100c6060830185610bf1565b9050826040830152949350505050565b634e487b7160e01b600052603260045260246000fd5b634e487b7160e01b600052601160045260246000fd5b8082018082111561105b5761105b611032565b92915050565b60006001820161107357611073611032565b5060010190565b60008261109757634e487b7160e01b600052601260045260246000fd5b50049056fea26469706673582212206f3de2f7115c98c266127a690da15a129f597bb96fb7ea62a33ff150f37e05b164736f6c63430008140033",
  "linkReferences": {},
  "deployedLinkReferences": {}
}