{
  "_format": "hh-sol-artifact-1",
  "contractName": "IdentityRegistry",
  "sourceName": "contracts/IdentityRegistry.sol",
  "abi": [
    {
      "inputs": [],
      "stateMutability": "nonpayable",
      "type": "constructor"
    },
    {
      "anonymous": false,
      "inputs": [
        {
          "indexed": true,
          "internalType": "uint256",
          "name": "agentId",
          "type": "uint256"
        }
      ],
      "name": "AgentDeactivated",
      "type": "event"
    },
    {
      "anonymous": false,
      "inputs": [
        {
          "indexed": true,
          "internalType": "uint256",
          "name": "agentId",
          "type": "uint256"
        },
        {
          "indexed": true,
          "internalType": "address",
          "name": "owner",
          "type": "address"
        },
        {
          "indexed": false,
          "internalType": "string",
          "name": "name",
          "type": "string"
        },
        {
          "indexed": false,
          "internalType": "string",
          "name": "metadataURI",
          "type": "string"
        }
      ],
      "name": "AgentRegistered",
      "type": "event"
    },
    {
      "anonymous": false,
      "inputs": [
        {
          "indexed": true,
          "internalType": "uint256",
          "name": "agentId",
          "type": "uint256"
        },
        {
          "indexed": false,
          "internalType": "string",
          "name": "metadataURI",
          "type": "string"
        }
      ],
      "name": "AgentUpdated",
      "type": "event"
    },
    {
      "anonymous": false,
      "inputs": [
        {
          "indexed": true,
          "internalType": "address",
          "name": "owner",
          "type": "address"
        },
        {
          "indexed": true,
          "internalType": "address",
          "name": "approved",
          "type": "address"
        },
        {
          "indexed": true,
          "internalType": "uint256",
          "name": "tokenId",
          "type": "uint256"
        }
      ],
      "name": "Approval",
      "type": "event"
    },
    {
      "anonymous": false,
      "inputs": [
        {
          "indexed": true,
          "internalType": "address",
          "name": "owner",
          "type": "address"
        },
        {
          "indexed": true,
          "internalType": "address",
          "name": "operator",
          "type": "address"
        },
        {
          "indexed": false,
          "internalType": "bool",
          "name": "approved",
          "type": "bool"
        }
      ],
      "name": "ApprovalForAll",
      "type": "event"
    },
    {
      "anonymous": false,
      "inputs": [
        {
          "indexed": true,
          "internalType": "address",
          "name": "previousOwner",
          "type": "address"
        },
        {
          "indexed": true,
          "internalType": "address",
          "name": "newOwner",
          "type": "address"
        }
      ],
      "name": "OwnershipTransferred",
      "type": "event"
    },
    {
      "anonymous": false,
      "inputs": [
        {
          "indexed": true,
          "internalType": "address",
          "name": "from",
          "type": "address"
        },
        {
          "indexed": true,
          "internalType": "address",
          "name": "to",
          "type": "address"
        },
        {
          "indexed": true,
          "internalType": "uint256",
          "name": "tokenId",
          "type": "uint256"
        }
      ],
      "name": "Transfer",
      "type": "event"
    },
    {
      "inputs": [
        {
          "internalType": "address",
          "name": "",
          "type": "address"
        }
      ],
      "name": "addressToAgentId",
      "outputs": [
        {
          "internalType": "uint256",
          "name": "",
          "type": "uint256"
        }
      ],
      "stateMutability": "view",
      "type": "function"
    },
    {
      "inputs": [
        {
          "internalType": "uint256",
          "name": "",
          "type": "uint256"
        }
      ],
      "name": "agents",
      "outputs": [
        {
          "internalType": "string",
          "name": "name",
          "type": "string"
        },
        {
          "internalType": "string",
          "name": "metadataURI",
          "type": "string"
        },
        {
          "internalType": "address",
          "name": "walletAddress",
          "type": "address"
        },
        {
          "internalType": "uint256",
          "name": "registeredAt",
          "type": "uint256"
        },
        {
          "internalType": "bool",
          "name": "isActive",
          "type": "bool"
        }
      ],
      "stateMutability": "view",
      "type": "function"
    },
    {
      "inputs": [
        {
          "internalType": "address",
          "name": "to",
          "type": "address"
        },
        {
          "internalType": "uint256",
          "name": "tokenId",
          "type": "uint256"
        }
      ],
      "name": "approve",
      "outputs": [],
      "stateMutability": "nonpayable",
      "type": "function"
    },
    {
      "inputs": [
        {
          "internalType": "address",
          "name": "owner",
          "type": "address"
        }
      ],
      "name": "balanceOf",
      "outputs": [
        {
          "internalType": "uint256",
          "name": "",
          "type": "uint256"
        }
      ],
      "stateMutability": "view",
      "type": "function"
    },
    {
      "inputs": [
        {
          "internalType": "uint256",
          "name": "agentId",
          "type": "uint256"
        }
      ],
      "name": "deactivateAgent",
      "outputs": [],
      "stateMutability": "nonpayable",
      "type": "function"
    },
    {
      "inputs": [
        {
          "internalType": "uint256",
          "name": "agentId",
          "type": "uint256"
        }
      ],
      "name": "getAgent",
      "outputs": [
        {
          "components": [
            {
              "internalType": "string",
              "name": "name",
              "type": "string"
            },
            {
              "internalType": "string",
              "name": "metadataURI",
              "type": "string"
            },
            {
              "internalType": "address",
              "name": "walletAddress",
              "type": "address"
            },
            {
              "internalType": "uint256",
              "name": "registeredAt",
              "type": "uint256"
            },
            {
              "internalType": "bool",
              "name": "isActive",
              "type": "bool"
            }
          ],
          "internalType": "struct IdentityRegistry.AgentMetadata",
          "name": "",
          "type": "tuple"
        }
      ],
      "stateMutability": "view",
      "type": "function"
    },
    {
      "inputs": [
        {
          "internalType": "uint256",
          "name": "tokenId",
          "type": "uint256"
        }
      ],
      "name": "getApproved",
      "outputs": [
        {
          "internalType": "address",
          "name": "",
          "type": "address"
        }
      ],
      "stateMutability": "view",
      "type": "function"
    },
    {
      "inputs": [
        {
          "internalType": "address",
          "name": "owner",
          "type": "address"
        },
        {
          "internalType": "address",
          "name": "operator",
          "type": "address"
        }
      ],
      "name": "isApprovedForAll",
      "outputs": [
        {
          "internalType": "bool",
          "name": "",
          "type": "bool"
        }
      ],
      "stateMutability": "view",
      "type": "function"
    },
    {
      "inputs": [],
      "name": "name",
      "outputs": [
        {
          "internalType": "string",
          "name": "",
          "type": "string"
        }
      ],
      "stateMutability": "view",
      "type": "function"
    },
    {
      "inputs": [],
      "name": "owner",
      "outputs": [
        {
          "internalType": "address",
          "name": "",
          "type": "address"
        }
      ],
      "stateMutability": "view",
      "type": "function"
    },
    {
      "inputs": [
        {
          "internalType": "uint256",
          "name": "tokenId",
          "type": "uint256"
        }
      ],
      "name": "ownerOf",
      "outputs": [
        {
          "internalType": "address",
          "name": "",
          "type": "address"
        }
      ],
      "stateMutability": "view",
      "type": "function"
    },
    {
      "inputs": [
        {
          "internalType": "string",
          "name": "name",
          "type": "string"
        },
        {
          "internalType": "string",
          "name": "metadataURI",
          "type": "string"
        },
        {
          "internalType": "address",
          "name": "walletAddress",
          "type": "address"
        }
      ],
      "name": "registerAgent",
      "outputs": [
        {
          "internalType": "uint256",
          "name": "",
          "type": "uint256"
        }
      ],
      "stateMutability": "nonpayable",
      "type": "function"
    },
    {
      "inputs": [],
      "name": "renounceOwnership",
      "outputs": [],
      "stateMutability": "nonpayable",
      "type": "function"
    },
    {
      "inputs": [
        {
          "internalType": "address",
          "name": "from",
          "type": "address"
        },
        {
          "internalType": "address",
          "name": "to",
          "type": "address"
        },
        {
          "internalType": "uint256",
          "name": "tokenId",
          "type": "uint256"
        }
      ],
      "name": "safeTransferFrom",
      "outputs": [],
      "stateMutability": "nonpayable",
      "type": "function"
    },
    {
      "inputs": [
        {
          "internalType": "address",
          "name": "from",
          "type": "address"
        },
        {
          "internalType": "address",
          "name": "to",
          "type": "address"
        },
        {
          "internalType": "uint256",
          "name": "tokenId",
          "type": "uint256"
        },
        {
          "internalType": "bytes",
          "name": "data",
          "type": "bytes"
        }
      ],
      "name": "safeTransferFrom",
      "outputs": [],
      "stateMutability": "nonpayable",
      "type": "function"
    },
    {
      "inputs": [
        {
          "internalType": "address",
          "name": "operator",
          "type": "address"
        },
        {
          "internalType": "bool",
          "name": "approved",
          "type": "bool"
        }
      ],
      "name": "setApprovalForAll",
      "outputs": [],
      "stateMutability": "nonpayable",
      "type": "function"
    },
    {
      "inputs": [
        {
          "internalType": "bytes4",
          "name": "interfaceId",
          "type": "bytes4"
        }
      ],
      "name": "supportsInterface",
      "outputs": [
        {
          "internalType": "bool",
          "name": "",
          "type": "bool"
        }
      ],
      "stateMutability": "view",
      "type": "function"
    },
    {
      "inputs": [],
      "name": "symbol",
      "outputs": [
        {
          "internalType": "string",
          "name": "",
          "type": "string"
        }
      ],
      "stateMutability": "view",
      "type": "function"
    },
    {
      "inputs": [
        {
          "internalType": "uint256",
          "name": "tokenId",
          "type": "uint256"
        }
      ],
      "name": "tokenURI",
      "outputs": [
        {
          "internalType": "string",
          "name": "",
          "type": "string"
        }
      ],
      "stateMutability": "view",
      "type": "function"
    },
    {
      "inputs": [],
      "name": "totalAgents",
      "outputs": [
        {
          "internalType": "uint256",
          "name": "",
          "type": "uint256"
        }
      ],
      "stateMutability": "view",
      "type": "function"
    },
    {
      "inputs": [
        {
          "internalType": "address",
          "name": "from",
          "type": "address"
        },
        {
          "internalType": "address",
          "name": "to",
          "type": "address"
        },
        {
          "internalType": "uint256",
          "name": "tokenId",
          "type": "uint256"
        }
      ],
      "name": "transferFrom",
      "outputs": [],
      "stateMutability": "nonpayable",
      "type": "function"
    },
    {
      "inputs": [
        {
          "internalType": "address",
          "name": "newOwner",
          "type": "address"
        }
      ],
      "name": "transferOwnership",
      "outputs": [],
      "stateMutability": "nonpayable",
      "type": "function"
    },
    {
      "inputs": [
        {
          "internalType": "uint256",
          "name": "agentId",
          "type": "uint256"
        },
        {
          "internalType": "string",
          "name": "metadataURI",
          "type": "string"
        }
      ],
      "name": "updateMetadata",
      "outputs": [],
      "stateMutability": "nonpayable",
      "type": "function"
    }
  ],
  "bytecode": "0x60806040523480156200001157600080fd5b506040518060400160405280601981526020017f54726176656c57697365204167656e74204964656e7469747900000000000000815250604051806040016040528060078152602001661515d051d1539560ca1b8152508160009081620000799190620001a6565b506001620000888282620001a6565b505050620000a56200009f620000ab60201b60201c565b620000af565b62000272565b3390565b600680546001600160a01b038381166001600160a01b0319831681179093556040519116919082907f8be0079c531659141344cd1fd0a4f28419497f9722a3daafe3b4186f6b6457e090600090a35050565b634e487b7160e01b600052604160045260246000fd5b600181811c908216806200012c57607f821691505b6020821081036200014d57634e487b7160e01b600052602260045260246000fd5b50919050565b601f821115620001a157600081815260208120601f850160051c810160208610156200017c5750805b601f850160051c820191505b818110156200019d5782815560010162000188565b5050505b505050565b81516001600160401b03811115620001c257620001c262000101565b620001da81620001d3845462000117565b8462000153565b602080601f831160018114620002125760008415620001f95750858301515b600019600386901b1c1916600185901b1785556200019d565b600085815260208120601f198616915b82811015620002435788860151825594840194600190910190840162000222565b5085821015620002625787850151600019600388901b60f8161c191681555b5050505050600190811b01905550565b611f9480620002826000396000f3fe608060405234801561001057600080fd5b506004361061014d5760003560e01c80636352211e116100c3578063b88d4fde1161007c578063b88d4fde146102da578063c5053712146102ed578063c87b56dd146102f5578063e985e9c514610308578063ebacebe414610344578063f2fde38b1461036457600080fd5b80636352211e1461028057806370a0823114610293578063715018a6146102a65780638da5cb5b146102ae57806395d89b41146102bf578063a22cb465146102c757600080fd5b806323b872dd1161011557806323b872dd146101e25780632de5aaf7146101f557806342842e0e14610215578063513856c81461022857806353bce15e1461024c57806353c8388e1461026d57600080fd5b806301ffc9a71461015257806306fdde031461017a578063081812fc1461018f578063095ea7b3146101ba57806311ba6b4a146101cf575b600080fd5b610165610160366004611837565b610377565b60405190151581526020015b60405180910390f35b6101826103c9565b60405161017191906118a4565b6101a261019d3660046118b7565b61045b565b6040516001600160a01b039091168152602001610171565b6101cd6101c83660046118ec565b610482565b005b6101cd6101dd3660046118b7565b61059c565b6101cd6101f0366004611916565b610631565b6102086102033660046118b7565b610662565b6040516101719190611952565b6101cd610223366004611916565b610869565b61023b6102363660046118b7565b610884565b6040516101719594939291906119c0565b61025f61025a366004611aba565b6109d1565b604051908152602001610171565b6101cd61027b366004611b2e565b610c35565b6101a261028e3660046118b7565b610d33565b61025f6102a1366004611b75565b610d93565b6101cd610e19565b6006546001600160a01b03166101a2565b610182610e2d565b6101cd6102d5366004611b90565b610e3c565b6101cd6102e8366004611bcc565b610e4b565b61025f610e83565b6101826103033660046118b7565b610e93565b610165610316366004611c48565b6001600160a01b03918216600090815260056020908152604080832093909416825291909152205460ff1690565b61025f610352366004611b75565b60096020526000908152604090205481565b6101cd610372366004611b75565b610f07565b60006001600160e01b031982166380ac58cd60e01b14806103a857506001600160e01b03198216635b5e139f60e01b145b806103c357506301ffc9a760e01b6001600160e01b03198316145b92915050565b6060600080546103d890611c7b565b80601f016020809104026020016040519081016040528092919081815260200182805461040490611c7b565b80156104515780601f1061042657610100808354040283529160200191610451565b820191906000526020600020905b81548152906001019060200180831161043457829003601f168201915b5050505050905090565b600061046682610f80565b506000908152600460205260409020546001600160a01b031690565b600061048d82610d33565b9050806001600160a01b0316836001600160a01b0316036104ff5760405162461bcd60e51b815260206004820152602160248201527f4552433732313a20617070726f76616c20746f2063757272656e74206f776e656044820152603960f91b60648201526084015b60405180910390fd5b336001600160a01b038216148061051b575061051b8133610316565b61058d5760405162461bcd60e51b815260206004820152603d60248201527f4552433732313a20617070726f76652063616c6c6572206973206e6f7420746f60448201527f6b656e206f776e6572206f7220617070726f76656420666f7220616c6c00000060648201526084016104f6565b6105978383610fdf565b505050565b336105a682610d33565b6001600160a01b0316146105ee5760405162461bcd60e51b815260206004820152600f60248201526e2737ba1030b3b2b73a1037bbb732b960891b60448201526064016104f6565b600081815260086020526040808220600401805460ff191690555182917fc2fb7f8575ac3990e70361684edfc4d283931ea9a03dfa28766bf376a3934aa291a250565b61063b338261104d565b6106575760405162461bcd60e51b81526004016104f690611cb5565b6105978383836110cc565b61069f6040518060a00160405280606081526020016060815260200160006001600160a01b03168152602001600081526020016000151581525090565b6000828152600260205260409020546001600160a01b03166106fa5760405162461bcd60e51b81526020600482015260146024820152731059d95b9d08191bd95cc81b9bdd08195e1a5cdd60621b60448201526064016104f6565b60008281526008602052604090819020815160a0810190925280548290829061072290611c7b565b80601f016020809104026020016040519081016040528092919081815260200182805461074e90611c7b565b801561079b5780601f106107705761010080835404028352916020019161079b565b820191906000526020600020905b81548152906001019060200180831161077e57829003601f168201915b505050505081526020016001820180546107b490611c7b565b80601f01602080910402602001604051908101604052809291908181526020018280546107e090611c7b565b801561082d5780601f106108025761010080835404028352916020019161082d565b820191906000526020600020905b81548152906001019060200180831161081057829003601f168201915b505050918352505060028201546001600160a01b031660208201526003820154604082015260049091015460ff16151560609091015292915050565b61059783838360405180602001604052806000815250610e4b565b60086020526000908152604090208054819061089f90611c7b565b80601f01602080910402602001604051908101604052809291908181526020018280546108cb90611c7b565b80156109185780601f106108ed57610100808354040283529160200191610918565b820191906000526020600020905b8154815290600101906020018083116108fb57829003601f168201915b50505050509080600101805461092d90611c7b565b80601f016020809104026020016040519081016040528092919081815260200182805461095990611c7b565b80156109a65780601f1061097b576101008083540402835291602001916109a6565b820191906000526020600020905b81548152906001019060200180831161098957829003601f168201915b505050506002830154600384015460049094015492936001600160a01b039091169290915060ff1685565b600080845111610a1a5760405162461bcd60e51b81526020600482015260146024820152734e616d652063616e6e6f7420626520656d70747960601b60448201526064016104f6565b6000835111610a635760405162461bcd60e51b815260206004820152601560248201527413595d1859185d1848155492481c995c5d5a5c9959605a1b60448201526064016104f6565b6001600160a01b038216610ab25760405162461bcd60e51b8152602060048201526016602482015275496e76616c69642077616c6c6574206164647265737360501b60448201526064016104f6565b3360009081526009602052604090205415610b0f5760405162461bcd60e51b815260206004820152601860248201527f4167656e7420616c72656164792072656769737465726564000000000000000060448201526064016104f6565b610b1d600780546001019055565b6000610b2860075490565b9050610b343382611230565b6040805160a08101825286815260208082018790526001600160a01b0386168284015242606083015260016080830152600084815260089091529190912081518190610b809082611d50565b5060208201516001820190610b959082611d50565b506040828101516002830180546001600160a01b0319166001600160a01b03909216919091179055606083015160038301556080909201516004909101805460ff19169115159190911790553360008181526009602052829020839055905182907f1fa075d34b5040b9bc683d1cc54ae270f345511dd00e1b9f68e82fd47b16f52490610c259089908990611e10565b60405180910390a3949350505050565b33610c3f83610d33565b6001600160a01b031614610c875760405162461bcd60e51b815260206004820152600f60248201526e2737ba1030b3b2b73a1037bbb732b960891b60448201526064016104f6565b60008281526008602052604090206004015460ff16610cdb5760405162461bcd60e51b815260206004820152601060248201526f4167656e74206e6f742061637469766560801b60448201526064016104f6565b6000828152600860205260409020600101610cf68282611d50565b50817ff0677ec077e6eec8e31d4e8be0cb20b797f3a9dc243e2ddc641532c0ff41203682604051610d2791906118a4565b60405180910390a25050565b6000818152600260205260408120546001600160a01b0316806103c35760405162461bcd60e51b8152602060048201526018602482015277115490cdcc8c4e881a5b9d985b1a59081d1bdad95b88125160421b60448201526064016104f6565b60006001600160a01b038216610dfd5760405162461bcd60e51b815260206004820152602960248201527f4552433732313a2061646472657373207a65726f206973206e6f7420612076616044820152683634b21037bbb732b960b91b60648201526084016104f6565b506001600160a01b031660009081526003602052604090205490565b610e2161124a565b610e2b60006112a4565b565b6060600180546103d890611c7b565b610e473383836112f6565b5050565b610e55338361104d565b610e715760405162461bcd60e51b81526004016104f690611cb5565b610e7d848484846113c4565b50505050565b6000610e8e60075490565b905090565b6060610e9e82610f80565b6000610eb560408051602081019091526000815290565b90506000815111610ed55760405180602001604052806000815250610f00565b80610edf846113f7565b604051602001610ef0929190611e3e565b6040516020818303038152906040525b9392505050565b610f0f61124a565b6001600160a01b038116610f745760405162461bcd60e51b815260206004820152602660248201527f4f776e61626c653a206e6577206f776e657220697320746865207a65726f206160448201526564647265737360d01b60648201526084016104f6565b610f7d816112a4565b50565b6000818152600260205260409020546001600160a01b0316610f7d5760405162461bcd60e51b8152602060048201526018602482015277115490cdcc8c4e881a5b9d985b1a59081d1bdad95b88125160421b60448201526064016104f6565b600081815260046020526040902080546001600160a01b0319166001600160a01b038416908117909155819061101482610d33565b6001600160a01b03167f8c5be1e5ebec7d5bd14f71427d1e84f3dd0314c0f7b2291e5b200ac8c7c3b92560405160405180910390a45050565b60008061105983610d33565b9050806001600160a01b0316846001600160a01b031614806110a057506001600160a01b0380821660009081526005602090815260408083209388168352929052205460ff165b806110c45750836001600160a01b03166110b98461045b565b6001600160a01b0316145b949350505050565b826001600160a01b03166110df82610d33565b6001600160a01b0316146111055760405162461bcd60e51b81526004016104f690611e6d565b6001600160a01b0382166111675760405162461bcd60e51b8152602060048201526024808201527f4552433732313a207472616e7366657220746f20746865207a65726f206164646044820152637265737360e01b60648201526084016104f6565b826001600160a01b031661117a82610d33565b6001600160a01b0316146111a05760405162461bcd60e51b81526004016104f690611e6d565b600081815260046020908152604080832080546001600160a01b03199081169091556001600160a01b0387811680865260038552838620805460001901905590871680865283862080546001019055868652600290945282852080549092168417909155905184937fddf252ad1be2c89b69c2b068fc378daa952ba7f163c4a11628f55a4df523b3ef91a4505050565b610e4782826040518060200160405280600081525061148a565b6006546001600160a01b03163314610e2b5760405162461bcd60e51b815260206004820181905260248201527f4f776e61626c653a2063616c6c6572206973206e6f7420746865206f776e657260448201526064016104f6565b600680546001600160a01b038381166001600160a01b0319831681179093556040519116919082907f8be0079c531659141344cd1fd0a4f28419497f9722a3daafe3b4186f6b6457e090600090a35050565b816001600160a01b0316836001600160a01b0316036113575760405162461bcd60e51b815260206004820152601960248201527f4552433732313a20617070726f766520746f2063616c6c65720000000000000060448201526064016104f6565b6001600160a01b03838116600081815260056020908152604080832094871680845294825291829020805460ff191686151590811790915591519182527f17307eab39ab6107e8899845ad3d59bd9653f200f220920489ca2b5937696c31910160405180910390a3505050565b6113cf8484846110cc565b6113db848484846114bd565b610e7d5760405162461bcd60e51b81526004016104f690611eb2565b60606000611404836115be565b600101905060008167ffffffffffffffff81111561142457611424611a0e565b6040519080825280601f01601f19166020018201604052801561144e576020820181803683370190505b5090508181016020015b600019016f181899199a1a9b1b9c1cb0b131b232b360811b600a86061a8153600a850494508461145857509392505050565b6114948383611696565b6114a160008484846114bd565b6105975760405162461bcd60e51b81526004016104f690611eb2565b60006001600160a01b0384163b156115b357604051630a85bd0160e11b81526001600160a01b0385169063150b7a0290611501903390899088908890600401611f04565b6020604051808303816000875af192505050801561153c575060408051601f3d908101601f1916820190925261153991810190611f41565b60015b611599573d80801561156a576040519150601f19603f3d011682016040523d82523d6000602084013e61156f565b606091505b5080516000036115915760405162461bcd60e51b81526004016104f690611eb2565b805181602001fd5b6001600160e01b031916630a85bd0160e11b1490506110c4565b506001949350505050565b60008072184f03e93ff9f4daa797ed6e38ed64bf6a1f0160401b83106115fd5772184f03e93ff9f4daa797ed6e38ed64bf6a1f0160401b830492506040015b6d04ee2d6d415b85acef81000000008310611629576d04ee2d6d415b85acef8100000000830492506020015b662386f26fc10000831061164757662386f26fc10000830492506010015b6305f5e100831061165f576305f5e100830492506008015b612710831061167357612710830492506004015b60648310611685576064830492506002015b600a83106103c35760010192915050565b6001600160a01b0382166116ec5760405162461bcd60e51b815260206004820181905260248201527f4552433732313a206d696e7420746f20746865207a65726f206164647265737360448201526064016104f6565b6000818152600260205260409020546001600160a01b0316156117515760405162461bcd60e51b815260206004820152601c60248201527f4552433732313a20746f6b656e20616c7265616479206d696e7465640000000060448201526064016104f6565b6000818152600260205260409020546001600160a01b0316156117b65760405162461bcd60e51b815260206004820152601c60248201527f4552433732313a20746f6b656e20616c7265616479206d696e7465640000000060448201526064016104f6565b6001600160a01b038216600081815260036020908152604080832080546001019055848352600290915280822080546001600160a01b0319168417905551839291907fddf252ad1be2c89b69c2b068fc378daa952ba7f163c4a11628f55a4df523b3ef908290a45050565b6001600160e01b031981168114610f7d57600080fd5b60006020828403121561184957600080fd5b8135610f0081611821565b60005b8381101561186f578181015183820152602001611857565b50506000910152565b60008151808452611890816020860160208601611854565b601f01601f19169290920160200192915050565b602081526000610f006020830184611878565b6000602082840312156118c957600080fd5b5035919050565b80356001600160a01b03811681146118e757600080fd5b919050565b600080604083850312156118ff57600080fd5b611908836118d0565b946020939093013593505050565b60008060006060848603121561192b57600080fd5b611934846118d0565b9250611942602085016118d0565b9150604084013590509250925092565b602081526000825160a0602084015261196e60c0840182611878565b90506020840151601f1984830301604085015261198b8282611878565b91505060018060a01b036040850151166060840152606084015160808401526080840151151560a08401528091505092915050565b60a0815260006119d360a0830188611878565b82810360208401526119e58188611878565b6001600160a01b0396909616604084015250506060810192909252151560809091015292915050565b634e487b7160e01b600052604160045260246000fd5b600067ffffffffffffffff80841115611a3f57611a3f611a0e565b604051601f8501601f19908116603f01168101908282118183101715611a6757611a67611a0e565b81604052809350858152868686011115611a8057600080fd5b858560208301376000602087830101525050509392505050565b600082601f830112611aab57600080fd5b610f0083833560208501611a24565b600080600060608486031215611acf57600080fd5b833567ffffffffffffffff80821115611ae757600080fd5b611af387838801611a9a565b94506020860135915080821115611b0957600080fd5b50611b1686828701611a9a565b925050611b25604085016118d0565b90509250925092565b60008060408385031215611b4157600080fd5b82359150602083013567ffffffffffffffff811115611b5f57600080fd5b611b6b85828601611a9a565b9150509250929050565b600060208284031215611b8757600080fd5b610f00826118d0565b60008060408385031215611ba357600080fd5b611bac836118d0565b915060208301358015158114611bc157600080fd5b809150509250929050565b60008060008060808587031215611be257600080fd5b611beb856118d0565b9350611bf9602086016118d0565b925060408501359150606085013567ffffffffffffffff811115611c1c57600080fd5b8501601f81018713611c2d57600080fd5b611c3c87823560208401611a24565b91505092959194509250565b60008060408385031215611c5b57600080fd5b611c64836118d0565b9150611c72602084016118d0565b90509250929050565b600181811c90821680611c8f57607f821691505b602082108103611caf57634e487b7160e01b600052602260045260246000fd5b50919050565b6020808252602d908201527f4552433732313a2063616c6c6572206973206e6f7420746f6b656e206f776e6560408201526c1c881bdc88185c1c1c9bdd9959609a1b606082015260800190565b601f82111561059757600081815260208120601f850160051c81016020861015611d295750805b601f850160051c820191505b81811015611d4857828155600101611d35565b505050505050565b815167ffffffffffffffff811115611d6a57611d6a611a0e565b611d7e81611d788454611c7b565b84611d02565b602080601f831160018114611db35760008415611d9b5750858301515b600019600386901b1c1916600185901b178555611d48565b600085815260208120601f198616915b82811015611de257888601518255948401946001909101908401611dc3565b5085821015611e005787850151600019600388901b60f8161c191681555b5050505050600190811b01905550565b604081526000611e236040830185611878565b8281036020840152611e358185611878565b95945050505050565b60008351611e50818460208801611854565b835190830190611e64818360208801611854565b01949350505050565b60208082526025908201527f4552433732313a207472616e736665722066726f6d20696e636f72726563742060408201526437bbb732b960d91b606082015260800190565b60208082526032908201527f4552433732313a207472616e7366657220746f206e6f6e20455243373231526560408201527131b2b4bb32b91034b6b83632b6b2b73a32b960711b606082015260800190565b6001600160a01b0385811682528416602082015260408101839052608060608201819052600090611f3790830184611878565b9695505050505050565b600060208284031215611f5357600080fd5b8151610f008161182156fea26469706673582212209cdbcd6c02a94b8e2771629b41f75eb2dfa89d3a7a2332b71feb88f324df1bb864736f6c63430008140033",
  "linkReferences": {},
  "deployedLinkReferences": {}
}