{
  "_format": "hh-sol-artifact-1",
  "contractName": "PaymentEscrow",
  "sourceName": "contracts/PaymentEscrow.sol",
  "abi": [
    {
      "inputs": [
        {
          "internalType": "address",
          "name": "_usdc",
          "type": "address"
        }
      ],
      "stateMutability": "nonpayable",
      "type": "constructor"
    },
    {
      "anonymous": false,
      "inputs": [
        {
          "indexed": true,
          "internalType": "address",
          "name": "previousOwner",
          "type": "address"
        },
        {
          "indexed": true,
          "internalType": "address",
          "name": "newOwner",
          "type": "address"
        }
      ],
      "name": "OwnershipTransferred",
      "type": "event"
    },
    {
      "anonymous": false,
      "inputs": [
        {
          "indexed": true,
          "internalType": "bytes32",
          "name": "paymentId",
          "type": "bytes32"
        },
        {
          "indexed": true,
          "internalType": "address",
          "name": "payer",
          "type": "address"
        },
        {
          "indexed": true,
          "internalType": "address",
          "name": "payee",
          "type": "address"
        },
        {
          "indexed": false,
          "internalType": "uint256",
          "name": "amount",
          "type": "uint256"
        }
      ],
      "name": "PaymentCreated",
      "type": "event"
    },
    {
      "anonymous": false,
      "inputs": [
        {
          "indexed": true,
          "internalType": "bytes32",
          "name": "paymentId",
          "type": "bytes32"
        },
        {
          "indexed": true,
          "internalType": "address",
          "name": "payer",
          "type": "address"
        },
        {
          "indexed": false,
          "internalType": "uint256",
          "name": "amount",
          "type": "uint256"
        }
      ],
      "name": "PaymentRefunded",
      "type": "event"
    },
    {
      "anonymous": false,
      "inputs": [
        {
          "indexed": true,
          "internalType": "bytes32",
          "name": "paymentId",
          "type": "bytes32"
        },
        {
          "indexed": true,
          "internalType": "address",
          "name": "payee",
          "type": "address"
        },
        {
          "indexed": false,
          "internalType": "uint256",
          "name": "amount",
          "type": "uint256"
        }
      ],
      "name": "PaymentReleased",
      "type": "event"
    },
    {
      "inputs": [
        {
          "internalType": "bytes32",
          "name": "paymentId",
          "type": "bytes32"
        },
        {
          "internalType": "address",
          "name": "payee",
          "type": "address"
        },
        {
          "internalType": "uint256",
          "name": "amount",
          "type": "uint256"
        }
      ],
      "name": "createPayment",
      "outputs": [],
      "stateMutability": "nonpayable",
      "type": "function"
    },
    {
      "inputs": [
        {
          "internalType": "bytes32",
          "name": "paymentId",
          "type": "bytes32"
        }
      ],
      "name": "getPayment",
      "outputs": [
        {
          "components": [
            {
              "internalType": "address",
              "name": "payer",
              "type": "address"
            },
            {
              "internalType": "address",
              "name": "payee",
              "type": "address"
            },
            {
              "internalType": "uint256",
              "name": "amount",
              "type": "uint256"
            },
            {
              "internalType": "uint256",
              "name": "createdAt",
              "type": "uint256"
            },
            {
              "internalType": "bool",
              "name": "released",
              "type": "bool"
            },
            {
              "internalType": "bool",
              "name": "refunded",
              "type": "bool"
            }
          ],
          "internalType": "struct PaymentEscrow.Payment",
          "name": "",
          "type": "tuple"
        }
      ],
      "stateMutability": "view",
      "type": "function"
    },
    {
      "inputs": [],
      "name": "owner",
      "outputs": [
        {
          "internalType": "address",
          "name": "",
          "type": "address"
        }
      ],
      "stateMutability": "view",
      "type": "function"
    },
    {
      "inputs": [
        {
          "internalType": "bytes32",
          "name": "",
          "type": "bytes32"
        }
      ],
      "name": "payments",
      "outputs": [
        {
          "internalType": "address",
          "name": "payer",
          "type": "address"
        },
        {
          "internalType": "address",
          "name": "payee",
          "type": "address"
        },
        {
          "internalType": "uint256",
          "name": "amount",
          "type": "uint256"
        },
        {
          "internalType": "uint256",
          "name": "createdAt",
          "type": "uint256"
        },
        {
          "internalType": "bool",
          "name": "released",
          "type": "bool"
        },
        {
          "internalType": "bool",
          "name": "refunded",
          "type": "bool"
        }
      ],
      "stateMutability": "view",
      "type": "function"
    },
    {
      "inputs": [
        {
          "internalType": "bytes32",
          "name": "paymentId",
          "type": "bytes32"
        }
      ],
      "name": "refundPayment",
      "outputs": [],
      "stateMutability": "nonpayable",
      "type": "function"
    },
    {
      "inputs": [
        {
          "internalType": "bytes32",
          "name": "paymentId",
          "type": "bytes32"
        }
      ],
      "name": "releasePayment",
      "outputs": [],
      "stateMutability": "nonpayable",
      "type": "function"
    },
    {
      "inputs": [],
      "name": "renounceOwnership",
      "outputs": [],
      "stateMutability": "nonpayable",
      "type": "function"
    },
    {
      "inputs": [
        {
          "internalType": "address",
          "name": "newOwner",
          "type": "address"
        }
      ],
      "name": "transferOwnership",
      "outputs": [],
      "stateMutability": "nonpayable",
      "type": "function"
    },
    {
      "inputs": [],
      "name": "usdc",
      "outputs": [
        {
          "internalType": "contract IERC20",
          "name": "",
          "type": "address"
        }
      ],
      "stateMutability": "view",
      "type": "function"
    }
  ],
  "bytecode": "0x608060405234801561001057600080fd5b50604051610de7380380610de783398101604081905261002f9161010e565b600160005561003d336100bc565b6001600160a01b0381166100975760405162461bcd60e51b815260206004820152601460248201527f496e76616c696420555344432061646472657373000000000000000000000000604482015260640160405180910390fd5b600280546001600160a01b0319166001600160a01b039290921691909117905561013e565b600180546001600160a01b038381166001600160a01b0319831681179093556040519116919082907f8be0079c531659141344cd1fd0a4f28419497f9722a3daafe3b4186f6b6457e090600090a35050565b60006020828403121561012057600080fd5b81516001600160a01b038116811461013757600080fd5b9392505050565b610c9a8061014d6000396000f3fe608060405234801561001057600080fd5b50600436106100935760003560e01c80637aa1ed58116100665780637aa1ed58146101775780638da5cb5b1461018a578063de8f8b3f1461019b578063e66eefc8146101ae578063f2fde38b146102b657600080fd5b80630716326d146100985780633e413bee1461012f578063588940bc1461015a578063715018a61461016f575b600080fd5b6100ee6100a6366004610b88565b6003602081905260009182526040909120805460018201546002830154938301546004909301546001600160a01b039283169492909116929060ff8082169161010090041686565b604080516001600160a01b03978816815296909516602087015293850192909252606084015215156080830152151560a082015260c0015b60405180910390f35b600254610142906001600160a01b031681565b6040516001600160a01b039091168152602001610126565b61016d610168366004610bbd565b6102c9565b005b61016d61054c565b61016d610185366004610b88565b610560565b6001546001600160a01b0316610142565b61016d6101a9366004610b88565b6107c1565b61025d6101bc366004610b88565b6040805160c081018252600080825260208201819052918101829052606081018290526080810182905260a081019190915250600090815260036020818152604092839020835160c08101855281546001600160a01b0390811682526001830154169281019290925260028101549382019390935290820154606082015260049091015460ff8082161515608084015261010090910416151560a082015290565b604051610126919081516001600160a01b03908116825260208084015190911690820152604080830151908201526060808301519082015260808083015115159082015260a09182015115159181019190915260c00190565b61016d6102c4366004610bf2565b610a0d565b6102d1610a83565b6000838152600360205260409020546001600160a01b03161561032c5760405162461bcd60e51b815260206004820152600e60248201526d5061796d656e742065786973747360901b60448201526064015b60405180910390fd5b6001600160a01b0382166103725760405162461bcd60e51b815260206004820152600d60248201526c496e76616c696420706179656560981b6044820152606401610323565b600081116103c25760405162461bcd60e51b815260206004820152601760248201527f416d6f756e74206d75737420626520706f7369746976650000000000000000006044820152606401610323565b6002546040516323b872dd60e01b8152336004820152306024820152604481018390526001600160a01b03909116906323b872dd906064016020604051808303816000875af1158015610419573d6000803e3d6000fd5b505050506040513d601f19601f8201168201806040525081019061043d9190610c14565b6104595760405162461bcd60e51b815260040161032390610c36565b6040805160c081018252338082526001600160a01b038581166020808501828152858701888152426060880190815260006080890181815260a08a018281528e83526003808852928c90209a518b54908a166001600160a01b0319918216178c55955160018c01805491909a16961695909517909755915160028901555190870155925160049095018054935115156101000261ff00199615159690961661ffff1990941693909317949094179091559251848152909186917fbfeae722deab5b34e41d6867882cfdbe3e53c6fa2701c3d62fe607cfb90482ce910160405180910390a46105476001600055565b505050565b610554610adc565b61055e6000610b36565b565b610568610a83565b600081815260036020526040902080546001600160a01b03166105c65760405162461bcd60e51b815260206004820152601660248201527514185e5b595b9d08191bd95cc81b9bdd08195e1a5cdd60521b6044820152606401610323565b600481015460ff161561060e5760405162461bcd60e51b815260206004820152601060248201526f105b1c9958591e481c995b19585cd95960821b6044820152606401610323565b6004810154610100900460ff161561065b5760405162461bcd60e51b815260206004820152601060248201526f105b1c9958591e481c99599d5b99195960821b6044820152606401610323565b80546001600160a01b031633148061067d57506001546001600160a01b031633145b6106ba5760405162461bcd60e51b815260206004820152600e60248201526d139bdd08185d5d1a1bdc9a5e995960921b6044820152606401610323565b6004818101805460ff1916600190811790915560028054918401549084015460405163a9059cbb60e01b81526001600160a01b03928316948101949094526024840152169063a9059cbb906044016020604051808303816000875af1158015610727573d6000803e3d6000fd5b505050506040513d601f19601f8201168201806040525081019061074b9190610c14565b6107675760405162461bcd60e51b815260040161032390610c36565b600181015460028201546040519081526001600160a01b039091169083907f1e170c3b430cc6fdcdaa453c42619ac587e13793aa81a489fab9ebd7019c2efb906020015b60405180910390a3506107be6001600055565b50565b6107c9610a83565b600081815260036020526040902080546001600160a01b03166108275760405162461bcd60e51b815260206004820152601660248201527514185e5b595b9d08191bd95cc81b9bdd08195e1a5cdd60521b6044820152606401610323565b600481015460ff161561086f5760405162461bcd60e51b815260206004820152601060248201526f105b1c9958591e481c995b19585cd95960821b6044820152606401610323565b6004810154610100900460ff16156108bc5760405162461bcd60e51b815260206004820152601060248201526f105b1c9958591e481c99599d5b99195960821b6044820152606401610323565b60018101546001600160a01b03163314806108e157506001546001600160a01b031633145b61091e5760405162461bcd60e51b815260206004820152600e60248201526d139bdd08185d5d1a1bdc9a5e995960921b6044820152606401610323565b6004818101805461ff0019166101001790556002805483549184015460405163a9059cbb60e01b81526001600160a01b03938416948101949094526024840152169063a9059cbb906044016020604051808303816000875af1158015610988573d6000803e3d6000fd5b505050506040513d601f19601f820116820180604052508101906109ac9190610c14565b6109c85760405162461bcd60e51b815260040161032390610c36565b805460028201546040519081526001600160a01b039091169083907f3b28817a65441bed1ac3a5496c6b71346aa302e80c7418c12e1c49eaa1721176906020016107ab565b610a15610adc565b6001600160a01b038116610a7a5760405162461bcd60e51b815260206004820152602660248201527f4f776e61626c653a206e6577206f776e657220697320746865207a65726f206160448201526564647265737360d01b6064820152608401610323565b6107be81610b36565b600260005403610ad55760405162461bcd60e51b815260206004820152601f60248201527f5265656e7472616e637947756172643a207265656e7472616e742063616c6c006044820152606401610323565b6002600055565b6001546001600160a01b0316331461055e5760405162461bcd60e51b815260206004820181905260248201527f4f776e61626c653a2063616c6c6572206973206e6f7420746865206f776e65726044820152606401610323565b600180546001600160a01b038381166001600160a01b0319831681179093556040519116919082907f8be0079c531659141344cd1fd0a4f28419497f9722a3daafe3b4186f6b6457e090600090a35050565b600060208284031215610b9a57600080fd5b5035919050565b80356001600160a01b0381168114610bb857600080fd5b919050565b600080600060608486031215610bd257600080fd5b83359250610be260208501610ba1565b9150604084013590509250925092565b600060208284031215610c0457600080fd5b610c0d82610ba1565b9392505050565b600060208284031215610c2657600080fd5b81518015158114610c0d57600080fd5b6020808252601490820152731554d110c81d1c985b9cd9995c8819985a5b195960621b60408201526060019056fea2646970667358221220fb6bf7dd6d14399d8320e1fe232ac2e183918cf9e3aad8eb968c0d7e17dd82c264736f6c63430008140033",
  "linkReferences": {},
  "deployedLinkReferences": {}
}